{
	"_format": "sphinx-sol-ct-artifact-1",
	"merkleRoot": "0xaa918025bd77c65d8f6f0cf44e5f92f7479d32269299aac8c6f5104ec6c82df4",
	"address": "0x90dfc3116f4f09200f3a112423c1bfc30cc4174f",
	"sourceName": "src/Banny721TokenUriResolver.sol",
	"contractName": "Banny721TokenUriResolver",
	"chainId": "0xaa36a7",
	"abi": [
		{
			"inputs": [
				{
					"internalType": "string",
					"name": "nakedBanny",
					"type": "string"
				},
				{
					"internalType": "string",
					"name": "defaultNecklace",
					"type": "string"
				},
				{
					"internalType": "string",
					"name": "defaultMouth",
					"type": "string"
				},
				{
					"internalType": "string",
					"name": "defaultStandardEyes",
					"type": "string"
				},
				{
					"internalType": "string",
					"name": "defaultAlienEyes",
					"type": "string"
				},
				{
					"internalType": "address",
					"name": "owner",
					"type": "address"
				},
				{
					"internalType": "address",
					"name": "trustedForwarder",
					"type": "address"
				}
			],
			"stateMutability": "nonpayable",
			"type": "constructor"
		},
		{
			"inputs": [],
			"name": "DEFAULT_ALIEN_EYES",
			"outputs": [
				{
					"internalType": "string",
					"name": "",
					"type": "string"
				}
			],
			"stateMutability": "view",
			"type": "function"
		},
		{
			"inputs": [],
			"name": "DEFAULT_MOUTH",
			"outputs": [
				{
					"internalType": "string",
					"name": "",
					"type": "string"
				}
			],
			"stateMutability": "view",
			"type": "function"
		},
		{
			"inputs": [],
			"name": "DEFAULT_NECKLACE",
			"outputs": [
				{
					"internalType": "string",
					"name": "",
					"type": "string"
				}
			],
			"stateMutability": "view",
			"type": "function"
		},
		{
			"inputs": [],
			"name": "DEFAULT_STANDARD_EYES",
			"outputs": [
				{
					"internalType": "string",
					"name": "",
					"type": "string"
				}
			],
			"stateMutability": "view",
			"type": "function"
		},
		{
			"inputs": [],
			"name": "NAKED_BANNY",
			"outputs": [
				{
					"internalType": "string",
					"name": "",
					"type": "string"
				}
			],
			"stateMutability": "view",
			"type": "function"
		},
		{
			"inputs": [
				{
					"internalType": "address",
					"name": "hook",
					"type": "address"
				},
				{
					"internalType": "uint256",
					"name": "nakedBannyId",
					"type": "uint256"
				}
			],
			"name": "assetIdsOf",
			"outputs": [
				{
					"internalType": "uint256",
					"name": "worldId",
					"type": "uint256"
				},
				{
					"internalType": "uint256[]",
					"name": "outfitIds",
					"type": "uint256[]"
				}
			],
			"stateMutability": "view",
			"type": "function"
		},
		{
			"inputs": [
				{
					"internalType": "address",
					"name": "hook",
					"type": "address"
				},
				{
					"internalType": "uint256",
					"name": "nakedBannyId",
					"type": "uint256"
				},
				{
					"internalType": "uint256",
					"name": "worldId",
					"type": "uint256"
				},
				{
					"internalType": "uint256[]",
					"name": "outfitIds",
					"type": "uint256[]"
				}
			],
			"name": "decorateBannyWith",
			"outputs": [],
			"stateMutability": "nonpayable",
			"type": "function"
		},
		{
			"inputs": [
				{
					"internalType": "address",
					"name": "forwarder",
					"type": "address"
				}
			],
			"name": "isTrustedForwarder",
			"outputs": [
				{
					"internalType": "bool",
					"name": "",
					"type": "bool"
				}
			],
			"stateMutability": "view",
			"type": "function"
		},
		{
			"inputs": [
				{
					"internalType": "address",
					"name": "hook",
					"type": "address"
				},
				{
					"internalType": "uint256",
					"name": "nakedBannyId",
					"type": "uint256"
				}
			],
			"name": "lockOutfitChangesFor",
			"outputs": [],
			"stateMutability": "nonpayable",
			"type": "function"
		},
		{
			"inputs": [
				{
					"internalType": "address",
					"name": "hook",
					"type": "address"
				},
				{
					"internalType": "uint256",
					"name": "tokenId",
					"type": "uint256"
				}
			],
			"name": "namesOf",
			"outputs": [
				{
					"internalType": "string",
					"name": "",
					"type": "string"
				},
				{
					"internalType": "string",
					"name": "",
					"type": "string"
				},
				{
					"internalType": "string",
					"name": "",
					"type": "string"
				}
			],
			"stateMutability": "view",
			"type": "function"
		},
		{
			"inputs": [
				{
					"internalType": "address",
					"name": "operator",
					"type": "address"
				},
				{
					"internalType": "address",
					"name": "from",
					"type": "address"
				},
				{
					"internalType": "uint256",
					"name": "tokenId",
					"type": "uint256"
				},
				{
					"internalType": "bytes",
					"name": "data",
					"type": "bytes"
				}
			],
			"name": "onERC721Received",
			"outputs": [
				{
					"internalType": "bytes4",
					"name": "",
					"type": "bytes4"
				}
			],
			"stateMutability": "view",
			"type": "function"
		},
		{
			"inputs": [
				{
					"internalType": "address",
					"name": "hook",
					"type": "address"
				},
				{
					"internalType": "uint256",
					"name": "upc",
					"type": "uint256"
				}
			],
			"name": "outfitLockedUntil",
			"outputs": [
				{
					"internalType": "uint256",
					"name": "",
					"type": "uint256"
				}
			],
			"stateMutability": "view",
			"type": "function"
		},
		{
			"inputs": [],
			"name": "owner",
			"outputs": [
				{
					"internalType": "address",
					"name": "",
					"type": "address"
				}
			],
			"stateMutability": "view",
			"type": "function"
		},
		{
			"inputs": [],
			"name": "renounceOwnership",
			"outputs": [],
			"stateMutability": "nonpayable",
			"type": "function"
		},
		{
			"inputs": [
				{
					"internalType": "uint256[]",
					"name": "upcs",
					"type": "uint256[]"
				},
				{
					"internalType": "string[]",
					"name": "names",
					"type": "string[]"
				}
			],
			"name": "setProductNames",
			"outputs": [],
			"stateMutability": "nonpayable",
			"type": "function"
		},
		{
			"inputs": [
				{
					"internalType": "string",
					"name": "baseUri",
					"type": "string"
				}
			],
			"name": "setSvgBaseUri",
			"outputs": [],
			"stateMutability": "nonpayable",
			"type": "function"
		},
		{
			"inputs": [
				{
					"internalType": "uint256[]",
					"name": "upcs",
					"type": "uint256[]"
				},
				{
					"internalType": "string[]",
					"name": "svgContents",
					"type": "string[]"
				}
			],
			"name": "setSvgContentsOf",
			"outputs": [],
			"stateMutability": "nonpayable",
			"type": "function"
		},
		{
			"inputs": [
				{
					"internalType": "uint256[]",
					"name": "upcs",
					"type": "uint256[]"
				},
				{
					"internalType": "bytes32[]",
					"name": "svgHashs",
					"type": "bytes32[]"
				}
			],
			"name": "setSvgHashsOf",
			"outputs": [],
			"stateMutability": "nonpayable",
			"type": "function"
		},
		{
			"inputs": [],
			"name": "svgBaseUri",
			"outputs": [
				{
					"internalType": "string",
					"name": "",
					"type": "string"
				}
			],
			"stateMutability": "view",
			"type": "function"
		},
		{
			"inputs": [
				{
					"internalType": "uint256",
					"name": "upc",
					"type": "uint256"
				}
			],
			"name": "svgHashOf",
			"outputs": [
				{
					"internalType": "bytes32",
					"name": "",
					"type": "bytes32"
				}
			],
			"stateMutability": "view",
			"type": "function"
		},
		{
			"inputs": [
				{
					"internalType": "address",
					"name": "hook",
					"type": "address"
				},
				{
					"internalType": "uint256",
					"name": "tokenId",
					"type": "uint256"
				},
				{
					"internalType": "bool",
					"name": "shouldDressNakedBanny",
					"type": "bool"
				},
				{
					"internalType": "bool",
					"name": "shouldIncludeWorldOnNakedBanny",
					"type": "bool"
				}
			],
			"name": "svgOf",
			"outputs": [
				{
					"internalType": "string",
					"name": "",
					"type": "string"
				}
			],
			"stateMutability": "view",
			"type": "function"
		},
		{
			"inputs": [
				{
					"internalType": "address",
					"name": "hook",
					"type": "address"
				},
				{
					"internalType": "uint256",
					"name": "tokenId",
					"type": "uint256"
				}
			],
			"name": "tokenUriOf",
			"outputs": [
				{
					"internalType": "string",
					"name": "",
					"type": "string"
				}
			],
			"stateMutability": "view",
			"type": "function"
		},
		{
			"inputs": [
				{
					"internalType": "address",
					"name": "newOwner",
					"type": "address"
				}
			],
			"name": "transferOwnership",
			"outputs": [],
			"stateMutability": "nonpayable",
			"type": "function"
		},
		{
			"inputs": [],
			"name": "trustedForwarder",
			"outputs": [
				{
					"internalType": "address",
					"name": "",
					"type": "address"
				}
			],
			"stateMutability": "view",
			"type": "function"
		},
		{
			"inputs": [
				{
					"internalType": "address",
					"name": "hook",
					"type": "address"
				},
				{
					"internalType": "uint256",
					"name": "worldId",
					"type": "uint256"
				}
			],
			"name": "userOf",
			"outputs": [
				{
					"internalType": "uint256",
					"name": "",
					"type": "uint256"
				}
			],
			"stateMutability": "view",
			"type": "function"
		},
		{
			"inputs": [
				{
					"internalType": "address",
					"name": "hook",
					"type": "address"
				},
				{
					"internalType": "uint256",
					"name": "outfitId",
					"type": "uint256"
				}
			],
			"name": "wearerOf",
			"outputs": [
				{
					"internalType": "uint256",
					"name": "",
					"type": "uint256"
				}
			],
			"stateMutability": "view",
			"type": "function"
		},
		{
			"anonymous": false,
			"inputs": [
				{
					"indexed": true,
					"internalType": "address",
					"name": "hook",
					"type": "address"
				},
				{
					"indexed": true,
					"internalType": "uint256",
					"name": "nakedBannyId",
					"type": "uint256"
				},
				{
					"indexed": true,
					"internalType": "uint256",
					"name": "worldId",
					"type": "uint256"
				},
				{
					"indexed": false,
					"internalType": "uint256[]",
					"name": "outfitIds",
					"type": "uint256[]"
				},
				{
					"indexed": false,
					"internalType": "address",
					"name": "caller",
					"type": "address"
				}
			],
			"name": "DecorateBanny",
			"type": "event"
		},
		{
			"anonymous": false,
			"inputs": [
				{
					"indexed": true,
					"internalType": "address",
					"name": "previousOwner",
					"type": "address"
				},
				{
					"indexed": true,
					"internalType": "address",
					"name": "newOwner",
					"type": "address"
				}
			],
			"name": "OwnershipTransferred",
			"type": "event"
		},
		{
			"anonymous": false,
			"inputs": [
				{
					"indexed": true,
					"internalType": "uint256",
					"name": "upc",
					"type": "uint256"
				},
				{
					"indexed": false,
					"internalType": "string",
					"name": "name",
					"type": "string"
				},
				{
					"indexed": false,
					"internalType": "address",
					"name": "caller",
					"type": "address"
				}
			],
			"name": "SetProductName",
			"type": "event"
		},
		{
			"anonymous": false,
			"inputs": [
				{
					"indexed": false,
					"internalType": "string",
					"name": "baseUri",
					"type": "string"
				},
				{
					"indexed": false,
					"internalType": "address",
					"name": "caller",
					"type": "address"
				}
			],
			"name": "SetSvgBaseUri",
			"type": "event"
		},
		{
			"anonymous": false,
			"inputs": [
				{
					"indexed": true,
					"internalType": "uint256",
					"name": "upc",
					"type": "uint256"
				},
				{
					"indexed": false,
					"internalType": "string",
					"name": "svgContent",
					"type": "string"
				},
				{
					"indexed": false,
					"internalType": "address",
					"name": "caller",
					"type": "address"
				}
			],
			"name": "SetSvgContent",
			"type": "event"
		},
		{
			"anonymous": false,
			"inputs": [
				{
					"indexed": true,
					"internalType": "uint256",
					"name": "upc",
					"type": "uint256"
				},
				{
					"indexed": true,
					"internalType": "bytes32",
					"name": "svgHash",
					"type": "bytes32"
				},
				{
					"indexed": false,
					"internalType": "address",
					"name": "caller",
					"type": "address"
				}
			],
			"name": "SetSvgHash",
			"type": "event"
		},
		{
			"inputs": [],
			"name": "Banny721TokenUriResolver_CantAccelerateTheLock",
			"type": "error"
		},
		{
			"inputs": [],
			"name": "Banny721TokenUriResolver_ContentsAlreadyStored",
			"type": "error"
		},
		{
			"inputs": [],
			"name": "Banny721TokenUriResolver_ContentsMismatch",
			"type": "error"
		},
		{
			"inputs": [],
			"name": "Banny721TokenUriResolver_HashAlreadyStored",
			"type": "error"
		},
		{
			"inputs": [],
			"name": "Banny721TokenUriResolver_HashNotFound",
			"type": "error"
		},
		{
			"inputs": [],
			"name": "Banny721TokenUriResolver_HeadAlreadyAdded",
			"type": "error"
		},
		{
			"inputs": [],
			"name": "Banny721TokenUriResolver_LockedNakedBanny",
			"type": "error"
		},
		{
			"inputs": [],
			"name": "Banny721TokenUriResolver_OutfitChangesLocked",
			"type": "error"
		},
		{
			"inputs": [],
			"name": "Banny721TokenUriResolver_SuitAlreadyAdded",
			"type": "error"
		},
		{
			"inputs": [],
			"name": "Banny721TokenUriResolver_UnauthorizedNakedBanny",
			"type": "error"
		},
		{
			"inputs": [],
			"name": "Banny721TokenUriResolver_UnauthorizedOutfit",
			"type": "error"
		},
		{
			"inputs": [],
			"name": "Banny721TokenUriResolver_UnauthorizedTransfer",
			"type": "error"
		},
		{
			"inputs": [],
			"name": "Banny721TokenUriResolver_UnauthorizedWorld",
			"type": "error"
		},
		{
			"inputs": [],
			"name": "Banny721TokenUriResolver_UnorderedCategories",
			"type": "error"
		},
		{
			"inputs": [],
			"name": "Banny721TokenUriResolver_UnrecognizedCategory",
			"type": "error"
		},
		{
			"inputs": [],
			"name": "Banny721TokenUriResolver_UnrecognizedProduct",
			"type": "error"
		},
		{
			"inputs": [],
			"name": "Banny721TokenUriResolver_UnrecognizedWorld",
			"type": "error"
		},
		{
			"inputs": [
				{
					"internalType": "address",
					"name": "owner",
					"type": "address"
				}
			],
			"name": "OwnableInvalidOwner",
			"type": "error"
		},
		{
			"inputs": [
				{
					"internalType": "address",
					"name": "account",
					"type": "address"
				}
			],
			"name": "OwnableUnauthorizedAccount",
			"type": "error"
		},
		{
			"inputs": [],
			"name": "ReentrancyGuardReentrantCall",
			"type": "error"
		}
	],
	"args": [],
	"solcInputHash": "6bf0ce660c8eb5fd6408757a8fdb5826",
	"bytecode": "0x60a06040523462000768576200659b803803806200001d816200076c565b928339810160e082820312620007685781516001600160401b03908181116200076857826200004e91850162000792565b602093848101518381116200076857846200006b91830162000792565b9360408201518481116200076857816200008791840162000792565b6060830151858111620007685782620000a291850162000792565b916080840151908682116200076857620000be91850162000792565b92620000db60c0620000d360a0840162000802565b920162000802565b906001600160a01b0390811690811562000750575f548260018060a01b03198216175f55167f8be0079c531659141344cd1fd0a4f28419497f9722a3daafe3b4186f6b6457e05f80a36080526001958680558451868111620003f657600954958887811c9716801562000745575b8a881014620003d7578190601f97888111620006f1575b508a9088831160011462000689575f926200067d575b50505f19600383901b1c191690881b176009555b805190868211620003f657600754908882811c9216801562000672575b8a831014620003d75781878493116200061e575b508990878311600114620005b8575f92620005ac575b50505f19600383901b1c191690871b176007555b805190858211620003f657600654908782811c92168015620005a1575b89831014620003d75781868493116200054d575b508890868311600114620004e7575f92620004db575b50505f19600383901b1c191690861b176006555b805190848211620003f657600854908682811c92168015620004d0575b88831014620003d75781858493116200047c575b50879085831160011462000416575f926200040a575b50505f19600383901b1c191690851b176008555b8051928311620003f65760059485548581811c91168015620003eb575b82821014620003d75783811162000391575b50809284116001146200032a57509282939183925f946200031e575b50501b915f199060031b1c19161790555b604051615d839081620008188239608051818181610bcf01528181610d270152615adf0152f35b015192505f80620002e6565b919083601f198116875f52845f20945f905b888383106200037657505050106200035d575b505050811b019055620002f7565b01515f1960f88460031b161c191690555f80806200034f565b8587015188559096019594850194879350908101906200033c565b865f52815f2084808701891c820192848810620003cd575b01881c019086905b828110620003c1575050620002ca565b5f8155018690620003b1565b92508192620003a9565b634e487b7160e01b5f52602260045260245ffd5b90607f1690620002b8565b634e487b7160e01b5f52604160045260245ffd5b015190505f8062000287565b90879350601f1983169160085f52895f20925f5b8b8282106200046557505084116200044c575b505050811b016008556200029b565b01515f1960f88460031b161c191690555f80806200043d565b8385015186558b979095019493840193016200042a565b90915060085f52875f208580850160051c8201928a8610620004c6575b918991869594930160051c01915b828110620004b757505062000271565b5f8155859450899101620004a7565b9250819262000499565b91607f16916200025d565b015190505f806200022c565b90889350601f1983169160065f528a5f20925f5b8c8282106200053657505084116200051d575b505050811b0160065562000240565b01515f1960f88460031b161c191690555f80806200050e565b8385015186558c97909501949384019301620004fb565b90915060065f52885f208680850160051c8201928b861062000597575b918a91869594930160051c01915b8281106200058857505062000216565b5f81558594508a910162000578565b925081926200056a565b91607f169162000202565b015190505f80620001d1565b90899350601f1983169160075f528b5f20925f5b8d828210620006075750508411620005ee575b505050811b01600755620001e5565b01515f1960f88460031b161c191690555f8080620005df565b8385015186558d97909501949384019301620005cc565b90915060075f52895f208780850160051c8201928c861062000668575b918b91869594930160051c01915b82811062000659575050620001bb565b5f81558594508b910162000649565b925081926200063b565b91607f1691620001a7565b015190505f8062000176565b908a9350601f1983169160095f528c5f20928d5f905b828210620006d95750508411620006c0575b505050811b016009556200018a565b01515f1960f88460031b161c191690555f8080620006b1565b8385015186558e979095019493840193018e6200069f565b90915060095f528a5f208880850160051c8201928d86106200073b575b918c91869594930160051c01915b8281106200072c57505062000160565b5f81558594508c91016200071c565b925081926200070e565b96607f169662000149565b604051631e4fbdf760e01b81525f6004820152602490fd5b5f80fd5b6040519190601f01601f191682016001600160401b03811183821017620003f657604052565b919080601f84011215620007685782516001600160401b038111620003f657602090620007c8601f8201601f191683016200076c565b9281845282828701011162000768575f5b818110620007ee5750825f9394955001015290565b8581018301518482018401528201620007d9565b51906001600160a01b0382168203620007685756fe60806040526004361015610011575f80fd5b5f3560e01c806257bfdd146101b357806305b2ae1b146101ae578063150b7a02146101a9578063187be308146101a457806318ab522d1461019f5780632150a1381461019a5780632580833d1461019557806331a290ac14610190578063572b6c051461018b5780635e703e71146101865780636aff31dd14610181578063715018a61461017c57806379a2696e146101775780637da0a87714610172578063875e4bea1461016d5780638da5cb5b14610168578063a0122c0914610163578063a22d0dd51461015e578063b03a3eab14610159578063b1fa9e7b14610154578063b3fa27831461014f578063c06e7bc71461014a578063c122804614610145578063d756227e14610140578063e9379bad1461013b5763f2fde38b14610136575f80fd5b6114e5565b611440565b611370565b6112c9565b61113e565b611099565b61106e565b610fca565b610f85565b610ee9565b610eb7565b610d4b565b610cfb565b610cc8565b610c4c565b610c22565b610bf6565b610b93565b6109e3565b61087f565b6107da565b610763565b6106a8565b6105ed565b6104c5565b61048e565b90600182811c921680156101ff575b60208310146101d257565b7f4e487b71000000000000000000000000000000000000000000000000000000005f52602260045260245ffd5b91607f16916101c7565b7f4e487b71000000000000000000000000000000000000000000000000000000005f52604160045260245ffd5b6101e0810190811067ffffffffffffffff82111761025357604052565b610209565b6020810190811067ffffffffffffffff82111761025357604052565b6040810190811067ffffffffffffffff82111761025357604052565b6060810190811067ffffffffffffffff82111761025357604052565b90601f601f19910116810190811067ffffffffffffffff82111761025357604052565b604051905f82600354916102e2836101b8565b8083529260209060019081811690811561036e575060011461030f575b505061030d925003836102ac565b565b91509260035f527fc2575a0e9e593c00f959f8c92f12db2869c3395a3b0502d05e2516446f71f85b935f925b828410610356575061030d9450505081016020015f806102ff565b8554888501830152948501948794509281019261033b565b90506020935061030d95925060ff1991501682840152151560051b8201015f806102ff565b9060405191825f82546103a5816101b8565b908184526020946001916001811690815f1461041157506001146103d3575b50505061030d925003836102ac565b5f90815285812095935091905b8183106103f957505061030d93508201015f80806103c4565b855488840185015294850194879450918301916103e0565b91505061030d95935060ff1991501682840152151560051b8201015f80806103c4565b5f5b8381106104455750505f910152565b8181015183820152602001610436565b90601f19601f60209361047381518092818752878088019101610434565b0116010190565b90602061048b928181520190610455565b90565b346104c1575f6003193601126104c1576104bd6104a96102cf565b604051918291602083526020830190610455565b0390f35b5f80fd5b346104c1575f6003193601126104c1576040515f6008546104e5816101b8565b80845290602090600190818116908115610577575060011461051e575b6104bd85610512818703826102ac565b6040519182918261047a565b60085f90815293507ff3f7a9fe364faab93b216da50a3214154f22a0a2b415b23a84c8169e8b636ee35b83851061056457505050508101602001610512826104bd610502565b8054868601840152938201938101610548565b8695506104bd9693506020925061051294915060ff191682840152151560051b8201019293610502565b73ffffffffffffffffffffffffffffffffffffffff8116036104c157565b9181601f840112156104c15782359167ffffffffffffffff83116104c157602083818601950101116104c157565b346104c15760806003193601126104c15760043561060a816105a1565b6106156024356105a1565b60643567ffffffffffffffff81116104c1576106359036906004016105bf565b505073ffffffffffffffffffffffffffffffffffffffff3091160361067e5760206040517f150b7a02000000000000000000000000000000000000000000000000000000008152f35b60046040517fecb1aa84000000000000000000000000000000000000000000000000000000008152fd5b346104c15760406003193601126104c1576004356106c5816105a1565b73ffffffffffffffffffffffffffffffffffffffff602435916106e88382613015565b16805f52600260205260405f20825f5260205260405f20549162093a8042019283421161075e57831061073457610731915f52600260205260405f20905f5260205260405f2090565b55005b60046040517f415f2254000000000000000000000000000000000000000000000000000000008152fd5b6115a9565b346104c15760406003193601126104c15761078c600435610783816105a1565b602435906116ed565b90604051918291604083019083526020906040602085015282518091526020606085019301915f5b8281106107c357505050500390f35b8351855286955093810193928101926001016107b4565b346104c1575f6003193601126104c1576040515f6005546107fa816101b8565b808452906020906001908181169081156105775750600114610826576104bd85610512818703826102ac565b60055f90815293507f036b6384b5eca791c62761152d0c79bb0604c104a5fb6f4eb0703f3154bb3db05b83851061086c57505050508101602001610512826104bd610502565b8054868601840152938201938101610850565b346104c1575f6003193601126104c1576040515f60065461089f816101b8565b8084529060209060019081811690811561057757506001146108cb576104bd85610512818703826102ac565b60065f90815293507ff652222313e28459528d920b65115c16c04f3efc82aaedc97be59f3f377c0d3f5b83851061091157505050508101602001610512826104bd610502565b80548686018401529382019381016108f5565b6040519061030d82610236565b67ffffffffffffffff81116102535760051b60200190565b929161095482610931565b9161096260405193846102ac565b829481845260208094019160051b81019283116104c157905b8282106109885750505050565b8135815290830190830161097b565b9080601f830112156104c15781602061048b93359101610949565b9181601f840112156104c15782359167ffffffffffffffff83116104c1576020808501948460051b0101116104c157565b346104c1576040806003193601126104c15760049067ffffffffffffffff82358181116104c157610a179036908501610997565b906024359081116104c157610a2f90369085016109b2565b9290915f5b8151811015610b9157610a4781836116cb565b51610a5d610a568388886117d1565b369161133a565b610a77610a72835f52600d60205260405f2090565b611831565b610b6957610a8d825f52600460205260405f2090565b548015610b415785516020810190610ab781610aa9848761183b565b03601f1981018352826102ac565b51902003610b1957907faeb631726b45aa3f6b09da79f7af03a9784614901f61a967ed84d63c37b7edc7610b1083610b0360019695610afe865f52600d60205260405f2090565b611900565b87519182913390836119cf565b0390a201610a34565b8785517fd8e55daf000000000000000000000000000000000000000000000000000000008152fd5b8886517f38d87d39000000000000000000000000000000000000000000000000000000008152fd5b8785517f444244f5000000000000000000000000000000000000000000000000000000008152fd5b005b346104c15760206003193601126104c1576020600435610bb2816105a1565b73ffffffffffffffffffffffffffffffffffffffff9060405191807f0000000000000000000000000000000000000000000000000000000000000000169116148152f35b346104c15760406003193601126104c1576104bd6104a9600435610c19816105a1565b60243590611e6e565b346104c15760206003193601126104c1576004355f526004602052602060405f2054604051908152f35b346104c1575f6003193601126104c157610c6461479f565b5f73ffffffffffffffffffffffffffffffffffffffff81547fffffffffffffffffffffffff000000000000000000000000000000000000000081168355167f8be0079c531659141344cd1fd0a4f28419497f9722a3daafe3b4186f6b6457e08280a3005b346104c15760406003193601126104c1576020610cf3600435610cea816105a1565b602435906126c4565b604051908152f35b346104c1575f6003193601126104c157602060405173ffffffffffffffffffffffffffffffffffffffff7f0000000000000000000000000000000000000000000000000000000000000000168152f35b346104c1576020806003193601126104c15767ffffffffffffffff6004358181116104c157610d7e9036906004016105bf565b9091610d8861479f565b811161025357610da281610d9d6003546101b8565b611868565b5f92601f8211600114610e155750610df081807f512c3c91736f50c57a0548c1d01ab02f24c420f002b8b20e2bfe63df9693cd3f955f91610e0a575b505f198260011b9260031b1c19161790565b6003555b610e0560405192839233918461272c565b0390a1005b90508401355f610dde565b60035f52601f198216937fc2575a0e9e593c00f959f8c92f12db2869c3395a3b0502d05e2516446f71f85b915f905b868210610e9f575050827f512c3c91736f50c57a0548c1d01ab02f24c420f002b8b20e2bfe63df9693cd3f9510610e86575b5050600181811b01600355610df4565b5f1960f88460031b161c19908401351690555f80610e76565b80600184958294958901358155019401920190610e44565b346104c1575f6003193601126104c157602073ffffffffffffffffffffffffffffffffffffffff5f5416604051908152f35b346104c15760406003193601126104c157610f5f600435610f09816105a1565b6104bd610f23610f1c602435809461327f565b8093613e5b565b91610f6d610f4a63ffffffff610f4262ffffff610100860151166144b1565b935116614091565b91604051958695606087526060870190610455565b908582036020870152610455565b908382036040850152610455565b801515036104c157565b346104c15760806003193601126104c1576104bd6104a9600435610fa8816105a1565b604435610fb481610f7b565b60643591610fc183610f7b565b60243590612c1c565b346104c15760406003193601126104c15767ffffffffffffffff6004358181116104c157610ffc903690600401610997565b906024359081116104c157366023820112156104c157806004013561102081610931565b9161102e60405193846102ac565b8183526020916024602085019160051b830101913683116104c157602401905b82821061105f57610b918587612d2e565b8135815290830190830161104e565b346104c15760406003193601126104c1576020610cf3600435611090816105a1565b60243590612dde565b346104c1575f6003193601126104c1576040515f6007546110b9816101b8565b8084529060209060019081811690811561057757506001146110e5576104bd85610512818703826102ac565b60075f90815293507fa66cc928b5edb82af9bd49922954155ab7b0942694bea4ce44661d9a8736c6885b83851061112b57505050508101602001610512826104bd610502565b805486860184015293820193810161110f565b346104c15760806003193601126104c15760043561115b816105a1565b6044359060243560643567ffffffffffffffff81116104c1576111829036906004016109b2565b9060026001541461129f57600260015561119c8385613015565b73ffffffffffffffffffffffffffffffffffffffff9182851692835f526002602052604096875f20865f52602052875f20544210611276576111dc615ac8565b97838151918083528201527f07ffffffffffffffffffffffffffffffffffffffffffffffffffffffffffffff84116104c15786611267967f6a68946ba06488db8585d7c7637fa954b574035fe15720ea760125ef8601725883606086958a61126d9f996112609a8c60051b8093868601371660208301528101030190a48587614b57565b3691610949565b91614e9e565b610b9160018055565b600488517f5a5ecb46000000000000000000000000000000000000000000000000000000008152fd5b60046040517f3ee5aeb5000000000000000000000000000000000000000000000000000000008152fd5b346104c15760406003193601126104c15773ffffffffffffffffffffffffffffffffffffffff6004356112fb816105a1565b165f52600260205260405f206024355f52602052602060405f2054604051908152f35b67ffffffffffffffff811161025357601f01601f191660200190565b9291926113468261131e565b9161135460405193846102ac565b8294818452818301116104c1578281602093845f960137010152565b346104c15760406003193601126104c15767ffffffffffffffff6004358181116104c1576113a2903690600401610997565b6024906024358381116104c157366023820112156104c1578060040135926113c984610931565b936113d760405195866102ac565b8085526020956024602087019260051b850101933685116104c15760248101925b85841061140957610b918888612e87565b83358381116104c1578201366043820112156104c15789916114358392369060448a820135910161133a565b8152019301926113f8565b346104c1575f6003193601126104c1576040515f600954611460816101b8565b80845290602090600190818116908115610577575060011461148c576104bd85610512818703826102ac565b60095f90815293507f6e1540171b6c0c960b71a7020d9f60077f6af931a8bbf590da0223dacf75c7af5b8385106114d257505050508101602001610512826104bd610502565b80548686018401529382019381016114b6565b346104c15760206003193601126104c157600435611502816105a1565b61150a61479f565b73ffffffffffffffffffffffffffffffffffffffff809116908115611579575f54827fffffffffffffffffffffffff00000000000000000000000000000000000000008216175f55167f8be0079c531659141344cd1fd0a4f28419497f9722a3daafe3b4186f6b6457e05f80a3005b60246040517f1e4fbdf70000000000000000000000000000000000000000000000000000000081525f6004820152fd5b7f4e487b71000000000000000000000000000000000000000000000000000000005f52601160045260245ffd5b906002820180921161075e57565b906020820180921161075e57565b906001820180921161075e57565b9190820180921161075e57565b90604051918281549182825260209260208301915f5260205f20935f905b8282106116415750505061030d925003836102ac565b85548452600195860195889550938101939091019061162b565b9061166582610931565b61167260405191826102ac565b828152601f196116828294610931565b0190602036910137565b7f4e487b71000000000000000000000000000000000000000000000000000000005f52603260045260245ffd5b8051156116c65760200190565b61168c565b80518210156116c65760209160051b010190565b5f19811461075e5760010190565b9190915f9273ffffffffffffffffffffffffffffffffffffffff82165f52600a60205260405f20815f5260205261172660405f2061160d565b93611731855161165b565b915f915f5b875181101561177f578061174c6001928a6116cb565b5184611758828a612dde565b14611765575b5001611736565b611778611771876116df565b96886116cb565b525f61175e565b5095509050929190926117b08273ffffffffffffffffffffffffffffffffffffffff165f52600b60205260405f2090565b815f526020526117c560405f205480936126c4565b146117cd5750565b9250565b91908110156116c65760051b810135907fffffffffffffffffffffffffffffffffffffffffffffffffffffffffffffffe1813603018212156104c157019081359167ffffffffffffffff83116104c15760200182360381136104c1579190565b61048b90546101b8565b9061184e60209282815194859201610434565b0190565b81811061185d575050565b5f8155600101611852565b90601f8211611875575050565b61030d9160035f527fc2575a0e9e593c00f959f8c92f12db2869c3395a3b0502d05e2516446f71f85b906020601f840160051c830193106118be575b601f0160051c0190611852565b90915081906118b1565b9190601f81116118d757505050565b61030d925f5260205f20906020601f840160051c830193106118be57601f0160051c0190611852565b919091825167ffffffffffffffff8111610253576119288161192284546101b8565b846118c8565b602080601f8311600114611968575081906119599394955f9261195d575b50505f198260011b9260031b1c19161790565b9055565b015190505f80611946565b90601f1983169561197c855f5260205f2090565b925f905b8882106119b75750508360019596971061199f575b505050811b019055565b01515f1960f88460031b161c191690555f8080611995565b80600185968294968601518155019501930190611980565b9073ffffffffffffffffffffffffffffffffffffffff6119fc602092959495604085526040850190610455565b9416910152565b60405190611a1082610258565b5f8252565b60405190611a2282610274565b600e82527f226f7574666974496473223a205b0000000000000000000000000000000000006020830152565b9060405191826060515f5b818110611a8d575090602061030d93611a8182948401918383015f8152815194859201610434565b010380855201836102ac565b6020919250806080015182828801015201908491611a59565b602061030d919392936040519481611ac78793518092868087019101610434565b8201611a8182518093868085019101610434565b905f19820191821161075e57565b9061030d602160405184611b07829651809260208086019101610434565b81017f2c0000000000000000000000000000000000000000000000000000000000000060208201520360018101855201836102ac565b9061030d602260405184611b5b829651809260208086019101610434565b81017f5d2c00000000000000000000000000000000000000000000000000000000000060208201520360028101855201836102ac565b602c61030d919392936040519481611bb3879351809260208087019101610434565b82017f22776f726c644964223a200000000000000000000000000000000000000000006020820152611bef825180936020602b85019101610434565b017f2c00000000000000000000000000000000000000000000000000000000000000602b82015203600c8101855201836102ac565b603b61030d919392936040519481611c46879351809260208087019101610434565b82017f226465636f726174696f6e734c6f636b6564556e74696c223a200000000000006020820152611c82825180936020603a85019101610434565b017f2c00000000000000000000000000000000000000000000000000000000000000603a82015203601b8101855201836102ac565b9061030d603760405180947f22776f726e42794e616b656442616e6e794964223a20000000000000000000006020830152611cfc815180926020603686019101610434565b81017f2c0000000000000000000000000000000000000000000000000000000000000060368201520360178101855201836102ac565b9061030d603760405180947f227573656442794e616b656442616e6e794964223a20000000000000000000006020830152611cfc815180926020603686019101610434565b81601f820112156104c1578051611d8d8161131e565b92611d9b60405194856102ac565b818452602082840101116104c15761048b9160208085019101610434565b906020828203126104c157815167ffffffffffffffff81116104c15761048b9201611d77565b6040513d5f823e3d90fd5b908160209103126104c1575190565b908160609103126104c1578051916040602083015192015161048b816105a1565b9061030d603d60405180947f646174613a6170706c69636174696f6e2f6a736f6e3b6261736536342c0000006020830152611e5e8151809260208686019101610434565b810103601d8101855201836102ac565b90611e79818361327f565b9063ffffffff611e8d835163ffffffff1690565b16156126b957611e9b611a03565b5061010082019062ffffff80611eb4845162ffffff1690565b16156125a157611edd611ed7611ece865163ffffffff1690565b63ffffffff1690565b86613590565b928351612565575b600182611ef5835162ffffff1690565b160361254a57611f15611f10611f0b85896126c4565b6133c6565b611d32565b915b8451156123d05750606073ffffffffffffffffffffffffffffffffffffffff9495966004604051809781937f08786b1a000000000000000000000000000000000000000000000000000000008352165afa9384156123cb575f905f95612396575b50611f838785613e5b565b948751611f939063ffffffff1690565b63ffffffff16611fa290614091565b978351611fb19062ffffff1690565b62ffffff16611fbf906144b1565b95611fc9906133c6565b938151611fd99063ffffffff1690565b63ffffffff16611fe8906133c6565b9051611ff89062ffffff166133c6565b606083015161200c9063ffffffff166133c6565b91604084015161201f9063ffffffff1690565b63ffffffff1661202e906133c6565b6020949094015161204d906cffffffffffffffffffffffffff166133c6565b94612057906133c6565b95612061906133c6565b96604051809c602082016120749161183b565b039b601f199c8d8101825261208990826102ac565b61209290614664565b6040517f7b226e616d65223a22000000000000000000000000000000000000000000000060208201529d8e9c919b9160298e016120ce9161183b565b7f222c202270726f647563744e616d65223a20220000000000000000000000000081526013016120fd9161183b565b7f222c202263617465676f72794e616d65223a2022000000000000000000000000815260140161212c9161183b565b7f222c2022746f6b656e4964223a200000000000000000000000000000000000008152600e0161215b9161183b565b7f2c2022757063223a200000000000000000000000000000000000000000000000815260090161218a9161183b565b7f2c202263617465676f7279223a200000000000000000000000000000000000008152600e016121b99161183b565b7f2c2022737570706c79223a2000000000000000000000000000000000000000008152600c016121e89161183b565b7f2c202272656d61696e696e67223a2000000000000000000000000000000000008152600f016122179161183b565b7f2c20227072696365223a200000000000000000000000000000000000000000008152600b016122469161183b565b7f2c2022646563696d616c73223a200000000000000000000000000000000000008152600e016122759161183b565b7f2c202263757272656e6379223a200000000000000000000000000000000000008152600e016122a49161183b565b7f2c2000000000000000000000000000000000000000000000000000000000000081526002016122d39161183b565b7f226465736372697074696f6e223a2241207069656365206f662074686520426181527f6e6e797665727365222c22696d616765223a22646174613a696d6167652f737660208201527f672b786d6c3b6261736536342c000000000000000000000000000000000000006040820152604d0161234e9161183b565b7f227d000000000000000000000000000000000000000000000000000000000000815260020103908101825261238490826102ac565b61238d90614664565b61048b90611e1a565b90506123bb91945060603d6060116123c4575b6123b381836102ac565b810190611df9565b5093905f611f78565b503d6123a9565b611ddf565b92959450601093506123e691505162ffffff1690565b161115612536576040517f6c0360eb0000000000000000000000000000000000000000000000000000000081525f8160048173ffffffffffffffffffffffffffffffffffffffff86165afa9283156123cb576124c7936020925f91612514575b50925b61246e612455826139e3565b73ffffffffffffffffffffffffffffffffffffffff1690565b906040518096819482937fc8df1710000000000000000000000000000000000000000000000000000000008452600484016020909392919373ffffffffffffffffffffffffffffffffffffffff60408201951681520152565b03915afa9081156123cb5761048b925f926124e3575b50613a70565b61250691925060203d60201161250d575b6124fe81836102ac565b810190611dea565b905f6124dd565b503d6124f4565b61253091503d805f833e61252881836102ac565b810190611db9565b5f612446565b60206124c7926125446102cf565b92612449565b61255f61255a611f0b8589612dde565b611cb7565b91611f17565b926125859060018361257a875162ffffff1690565b160361258b576138d0565b92611ee5565b61259c90612597613728565b611aa6565b6138d0565b9390926125b18483979497612aee565b6125bb85846116ed565b95906125c5611a15565b985f995b88518b101561261e576125ef906125e96125e38d8c6116cb565b516133c6565b90611aa6565b996125fa8951611adb565b811061260a575b600101996125c9565b99612616600191611ae9565b9a9050612601565b90939699506126339194975097919497611b3d565b928061269e575b50612674846126678973ffffffffffffffffffffffffffffffffffffffff165f52600260205260405f2090565b905f5260205260405f2090565b54428111612683575b50611f17565b9261269161269792946133c6565b90611c24565b915f61267d565b926126ac6126b292946133c6565b90611b91565b915f61263a565b50505061048b611a03565b73ffffffffffffffffffffffffffffffffffffffff16805f52600e60205260405f20825f5260205260405f205491821591821561270a575b50506127055790565b505f90565b9091505f52600b60205260405f20825f5260205260405f205414155f806126fc565b916060601f19601f8373ffffffffffffffffffffffffffffffffffffffff94602096999899604089528160408a0152858901375f84828901015201168401019416910152565b6009545f9291612781826101b8565b916001908181169081156127eb575060011461279c57505050565b909192935060095f527f6e1540171b6c0c960b71a7020d9f60077f6af931a8bbf590da0223dacf75c7af905f915b8483106127d8575050500190565b81816020925485870152019201916127ca565b60ff191683525050811515909102019150565b90604051918260209161281981518092858086019101610434565b6008545f918301612829826101b8565b916001908181169081156128b25750600114612856575b50505061030d925003601f1981018452836102ac565b94925060085f527ff3f7a9fe364faab93b216da50a3214154f22a0a2b415b23a84c8169e8b636ee3945f905b83821061289a57505061030d945001015f8080612840565b86548284018601529586019588955090840190612882565b905061030d96945060ff19915092919216838301528015150201015f8080612840565b9060405191826020916128f081518092858086019101610434565b6005545f918301612900826101b8565b916001908181169081156128b2575060011461292c5750505061030d925003601f1981018452836102ac565b94925060055f527f036b6384b5eca791c62761152d0c79bb0604c104a5fb6f4eb0703f3154bb3db0945f905b83821061297057505061030d945001015f8080612840565b86548284018601529586019588955090840190612958565b9060405191826020916129a381518092858086019101610434565b6007545f9183016129b3826101b8565b916001908181169081156128b257506001146129df5750505061030d925003601f1981018452836102ac565b94925060075f527fa66cc928b5edb82af9bd49922954155ab7b0942694bea4ce44661d9a8736c688945f905b838210612a2357505061030d945001015f8080612840565b86548284018601529586019588955090840190612a0b565b906040519182602091612a5681518092858086019101610434565b6006545f918301612a66826101b8565b916001908181169081156128b25750600114612a925750505061030d925003601f1981018452836102ac565b94925060065f527ff652222313e28459528d920b65115c16c04f3efc82aaedc97be59f3f377c0d3f945f905b838210612ad657505061030d945001015f8080612840565b86548284018601529586019588955090840190612abe565b612af8828261327f565b9163ffffffff80612b0d855163ffffffff1690565b1615612c105760609162ffffff612b2b61010087015162ffffff1690565b16612bdb57936001612b959392612b80612b75612b4b61048b99896116ed565b969080151580612bd4575b612bba575b506125e9612b70611ece885163ffffffff1690565b614804565b935163ffffffff1690565b1603612bb157612b8f906128d5565b926149dc565b8051612ba2575b506138d0565b612bab91611aa6565b5f612b9c565b612b8f906127fe565b612bce9150612bc9908a613590565b611a4e565b5f612b5b565b5085612b56565b505050612bf2611ece612bf8935163ffffffff1690565b90613590565b8051612c07575061048b611a03565b61048b906138d0565b5050505061048b611a03565b9092612c28848361327f565b9363ffffffff9081612c3e875163ffffffff1690565b1615612d205760609062ffffff612c5c61010089015162ffffff1690565b16612d065791612c9e612b75600193612c7961048b9a96896116ed565b978115159081612cfe575b50612cef57506125e9612b70611ece885163ffffffff1690565b1603612ce057612cad906128d5565b925b612cbb575b50506138d0565b612cc4916149dc565b8051612cd1575b80612cb4565b612cda91611aa6565b5f612ccb565b612ce9906127fe565b92612caf565b612bce9150612bc99089613590565b90505f612c84565b505050509050612bf2611ece612bf8935163ffffffff1690565b50505050505061048b611a03565b91612d3761479f565b5f925b8051841015612dd857612d4d84826116cb565b5193612d5981856116cb565b51855f5260049560208781526040805f2054612db057907fb10eb6fc7557a7109693cb8f3fac48d44328de56c0368ee4cac539b424d2cad991600196979899845f52825284815f205551338152a301929190612d3a565b8890517f2165e0ab000000000000000000000000000000000000000000000000000000008152fd5b50915050565b73ffffffffffffffffffffffffffffffffffffffff81165f52600f60205260405f20825f5260205260405f2054908115612e8057612e3a9073ffffffffffffffffffffffffffffffffffffffff165f52600a60205260405f2090565b815f52602052612e4c60405f2061160d565b915f5b8351811015612e785781612e6382866116cb565b5114612e7157600101612e4f565b5050905090565b505050505f90565b5050505f90565b91612e9061479f565b5f925b8051841015612dd857612ea684826116cb565b5193612eb281856116cb565b5194805f52602095600c87526040805f20825167ffffffffffffffff811161025357612ee28161192284546101b8565b89601f8211600114612f5f5750917f9dedd219289ed514faff576c477c66bd097aef59a236e3b8ebcf0d0070cb4e969391612f3984612f489560019a9b9c9d5f91612f5457505f198260011b9260031b1c19161790565b90555b519182913390836119cf565b0390a201929190612e93565b90508501515f610dde565b99601f198216612f72845f5260205f2090565b9b5f905b828210612fdb57505091600198999a9b7f9dedd219289ed514faff576c477c66bd097aef59a236e3b8ebcf0d0070cb4e9696949282612f48979510612fc3575b5050881b88019055612f3c565b8501515f1960f88460031b161c191690555f80612fb6565b80600181939f868b015181550194019d01909c929c612f76565b519061030d826105a1565b908160209103126104c1575161048b816105a1565b90602060249273ffffffffffffffffffffffffffffffffffffffff93849360405195869384927f6352211e0000000000000000000000000000000000000000000000000000000084526004840152165afa9182156123cb575f926130b2575b508061307e615ac8565b1691160361308857565b60046040517f115472e4000000000000000000000000000000000000000000000000000000008152fd5b6130d591925060203d6020116130dc575b6130cd81836102ac565b810190613000565b905f613074565b503d6130c3565b519063ffffffff821682036104c157565b51906cffffffffffffffffffffffffff821682036104c157565b519061ffff821682036104c157565b519062ffffff821682036104c157565b519060ff821682036104c157565b519061030d82610f7b565b6020818303126104c157805167ffffffffffffffff918282116104c157016101e0818403126104c157613177610924565b92613181826130e3565b845261318f602083016130f4565b60208501526131a0604083016130e3565b60408501526131b1606083016130e3565b60608501526131c2608083016130f4565b60808501526131d360a0830161310e565b60a08501526131e460c08301612ff5565b60c085015260e082015160e085015261010061320181840161311d565b9085015261012061321381840161312d565b9085015261014061322581840161313b565b9085015261016061323781840161313b565b9085015261018061324981840161313b565b908501526101a061325b81840161313b565b908501526101c092838301519081116104c1576132789201611d77565b9082015290565b613358915f9160606101c060405161329681610236565b85815285602082015285604082015285838201528560808201528560a08201528560c08201528560e08201528561010082015285610120820152856101408201528561016082015285610180820152856101a082015201526132fa612455826139e3565b906040518095819482937fc44a8e6d000000000000000000000000000000000000000000000000000000008452600484016040905f92949373ffffffffffffffffffffffffffffffffffffffff606083019616825260208201520152565b03915afa9081156123cb575f9161336d575090565b61048b91503d805f833e61338181836102ac565b810190613146565b60405161339581610258565b5f8152905f368137565b906133a98261131e565b6133b660405191826102ac565b828152601f19611682829461131e565b805f917a184f03e93ff9f4daa797ed6e38ed64bf6a1f01000000000000000080821015613507575b506d04ee2d6d415b85acef8100000000808310156134f8575b50662386f26fc10000808310156134e9575b506305f5e100808310156134da575b50612710808310156134cb575b5060648210156134bb575b600a809210156134b1575b60019081602161345d6001870161339f565b95860101905b61346f575b5050505090565b5f19849101917f30313233343536373839616263646566000000000000000000000000000000008282061a8353049182156134ac57919082613463565b613468565b916001019161344b565b9190606460029104910191613440565b6004919392049101915f613435565b6008919392049101915f613428565b6010919392049101915f613419565b6020919392049101915f613407565b60409350810491505f6133ee565b9061030d604960405180947f3c696d61676520687265663d2200000000000000000000000000000000000000602083015261355a815180926020602d86019101610434565b81017f222077696474683d2234303022206865696768743d22343030222f3e00000000602d8201520360298101855201836102ac565b815f52602090600d82526135a660405f20610393565b8051613721575061362b928173ffffffffffffffffffffffffffffffffffffffff6135d185946139e3565b16906040518096819482937fbd51923c000000000000000000000000000000000000000000000000000000008452600484016020909392919373ffffffffffffffffffffffffffffffffffffffff60408201951681520152565b03915afa9182156123cb575f92613702575b50604051905f90600354613650816101b8565b808552906001908181169081156136e2575060011461368b575b50505091816136816136869361048b9503826102ac565b613a70565b613515565b60035f9081529293507fc2575a0e9e593c00f959f8c92f12db2869c3395a3b0502d05e2516446f71f85b5b8284106136cf575050508201018161368161368661366a565b80548685018601529284019281016136b6565b60ff1916848701525050151560051b83010190508161368161368661366a565b8161371a9293503d841161250d576124fe81836102ac565b905f61363d565b9250505090565b604461048b604051610aa960086138a760208401937f7b66696c6c3a6e6f6e653b7d00000000000000000000000000000000000000008552600c815261376d81610274565b600361387d816138536040519a8b997f3c7374796c653e2e6f7b66696c6c3a233830383038303b7d2e6232000000000060208c0152603b6137b48c89519283910184610434565b8b017f2e62330000000000000000000000000000000000000000000000000000000000603b8201528751906137ed82603e830185610434565b017f2e62340000000000000000000000000000000000000000000000000000000000603e820152613825885180936041840190610434565b017f2e613100000000000000000000000000000000000000000000000000000000006041820152018561183b565b7f2e613200000000000000000000000000000000000000000000000000000000008152018361183b565b7f2e613300000000000000000000000000000000000000000000000000000000008152019061183b565b7f3c2f7374796c653e000000000000000000000000000000000000000000000000815201612772565b9061030d60bb60405180947f3c7376672077696474683d2234303022206865696768743d223430302220766960208301527f6577426f783d223020302034303020343030222066696c6c3d2277686974652260408301527f20786d6c6e733d22687474703a2f2f7777772e77332e6f72672f323030302f7360608301527f7667223e3c7374796c653e2e6f7b66696c6c3a233035303530353b7d2e777b6660808301527f696c6c3a236639663966393b7d3c2f7374796c653e000000000000000000000060a08301526139ad81518092602060b586019101610434565b81017f3c2f7376673e000000000000000000000000000000000000000000000000000060b582015203609b8101855201836102ac565b602073ffffffffffffffffffffffffffffffffffffffff916004604051809481937f507f1465000000000000000000000000000000000000000000000000000000008352165afa9081156123cb575f91613a3b575090565b90506020813d602011613a68575b81613a56602093836102ac565b810103126104c1575161048b816105a1565b3d9150613a49565b9061048b90613aba6040516020927f122000000000000000000000000000000000000000000000000000000000000084830152602282015260228152613ab581610290565b61547f565b926040519381613ad38693518092868087019101610434565b8201613ae782518093868085019101610434565b010380845201826102ac565b9061030d602160405184613b11829651809260208086019101610434565b81017f200000000000000000000000000000000000000000000000000000000000000060208201520360018101855201836102ac565b60405190613b5482610274565b600a82527f2072656d61696e696e67000000000000000000000000000000000000000000006020830152565b9061030d929493602192613c05604051978894602093613ba88151809287808b019101610434565b8601613bbc82518093878085019101610434565b017f2f0000000000000000000000000000000000000000000000000000000000000084820152613bf482518093868a85019101610434565b019183519384918785019101610434565b010360018101855201836102ac565b9061030d929493602d92613caf604051978894602093613c3c8151809287808b019101610434565b86017f2028534f4c44204f55542920000000000000000000000000000000000000000085820152613c768251809387602c85019101610434565b017f2f00000000000000000000000000000000000000000000000000000000000000602c820152613bf482518093868a85019101610434565b0103600d8101855201836102ac565b61030d91613c059493602192604051968793602092613ce58151809286808a019101610434565b8501613cf982518093868085019101610434565b01917f2f000000000000000000000000000000000000000000000000000000000000008184015283519384918785019101610434565b9061030d602360405184613d4d829651809260208086019101610434565b81017f203a20000000000000000000000000000000000000000000000000000000000060208201520360038101855201836102ac565b602161030d919392936040519481613da5879351809260208087019101610434565b8201613dba8251809360208085019101610434565b017f200000000000000000000000000000000000000000000000000000000000000060208201520360018101855201836102ac565b602561030d919392936040519481613e11879351809260208087019101610434565b82017f55504320230000000000000000000000000000000000000000000000000000006020820152613e4c8251809360208785019101610434565b010360058101855201836102ac565b90613ec961048b92633b9aca00613e89613e84613e7f611ece875163ffffffff1690565b614091565b613af3565b9106613e93613b47565b8115613f2d575090613ea7613ec4926133c6565b613ebe611f0b611ece606088015163ffffffff1690565b91613cbe565b613d2f565b90613eee613ee9613ee161010084015162ffffff1690565b62ffffff1690565b6144b1565b8051613f10575b50611f0b611ece613f0a925163ffffffff1690565b90613def565b611ece613f24611f0b92613f0a9495613d83565b93925050613ef5565b9050604084019163ffffffff613f47845163ffffffff1690565b1680613f825750613f65611f0b611ece613ec4955163ffffffff1690565b613f7c611f0b611ece606089015163ffffffff1690565b91613c14565b613ec49350613f90906133c6565b613fa7611f0b611ece606089015163ffffffff1690565b91613b80565b60405190613fba82610274565b600882527f4f726967696e616c0000000000000000000000000000000000000000000000006020830152565b60405190613ff382610274565b600682527f4f72616e676500000000000000000000000000000000000000000000000000006020830152565b6040519061402c82610274565b600482527f50696e6b000000000000000000000000000000000000000000000000000000006020830152565b6040519061406582610274565b600582527f416c69656e0000000000000000000000000000000000000000000000000000006020830152565b600181036140a2575061048b614058565b600281036140b3575061048b61401f565b600381036140c4575061048b613fe6565b600481036140d5575061048b613fad565b5f52600c60205261048b60405f20610393565b604051906140f582610274565b600c82527f5370656369616c20426f647900000000000000000000000000000000000000006020830152565b6040519061412e82610274565b600c82527f5370656369616c204865616400000000000000000000000000000000000000006020830152565b6040519061416782610274565b600c82527f5370656369616c204c65677300000000000000000000000000000000000000006020830152565b604051906141a082610274565b600c82527f5370656369616c205375697400000000000000000000000000000000000000006020830152565b604051906141d982610274565b600482527f46697374000000000000000000000000000000000000000000000000000000006020830152565b6040519061421282610274565b600b82527f5375697420626f74746f6d0000000000000000000000000000000000000000006020830152565b6040519061424b82610274565b600882527f5375697420746f700000000000000000000000000000000000000000000000006020830152565b6040519061428482610274565b600482527f53756974000000000000000000000000000000000000000000000000000000006020830152565b604051906142bd82610274565b600482527f48656164000000000000000000000000000000000000000000000000000000006020830152565b604051906142f682610274565b600882527f4865616420746f700000000000000000000000000000000000000000000000006020830152565b6040519061432f82610274565b600582527f4d6f7574680000000000000000000000000000000000000000000000000000006020830152565b6040519061436882610274565b600782527f476c6173736573000000000000000000000000000000000000000000000000006020830152565b604051906143a182610274565b600882527f4e65636b6c6163650000000000000000000000000000000000000000000000006020830152565b604051906143da82610274565b600482527f4c656773000000000000000000000000000000000000000000000000000000006020830152565b6040519061441382610274565b600882527f4261636b736964650000000000000000000000000000000000000000000000006020830152565b6040519061444c82610274565b600582527f576f726c640000000000000000000000000000000000000000000000000000006020830152565b6040519061448582610274565b600b82527f4e616b65642042616e6e790000000000000000000000000000000000000000006020830152565b806144bf575061048b614478565b600181036144d0575061048b61443f565b600281036144e1575061048b614406565b600781036144f2575061048b6143cd565b60038103614503575061048b614394565b60058103614514575061048b61435b565b60068103614525575061048b614322565b600b8103614536575061048b6142e9565b60048103614547575061048b6142b0565b60088103614558575061048b614277565b600a8103614569575061048b61423e565b6009810361457a575061048b614205565b600c810361458b575061048b6141cc565b600d810361459c575061048b614193565b600e81036145ad575061048b61415a565b600f81036145be575061048b614121565b6010146145cd5761048b611a03565b61048b6140e8565b604051906145e282610290565b604082527f6768696a6b6c6d6e6f707172737475767778797a303132333435363738392b2f6040837f4142434445464748494a4b4c4d4e4f505152535455565758595a61626364656660208201520152565b908160021b917f3fffffffffffffffffffffffffffffffffffffffffffffffffffffffffffffff81160361075e57565b805115614796576146736145d5565b61468f61468a61468384516115d6565b6003900490565b614634565b916146a161469c846115e4565b61339f565b92835280815182019060208501935b828210614744575050506003905106806001146146fb576002146146d2575090565b5f197f3d0000000000000000000000000000000000000000000000000000000000000091015290565b507ffffffffffffffffffffffffffffffffffffffffffffffffffffffffffffffffe7f3d3d00000000000000000000000000000000000000000000000000000000000091015290565b9091936004906003809401938451600190603f9082828260121c16880101518553828282600c1c16880101518386015382828260061c16880101516002860153168501015190820153019391906146b0565b5061048b611a03565b73ffffffffffffffffffffffffffffffffffffffff805f5416816147c1615ac8565b16036147ca5750565b6024906147d5615ac8565b6040517f118cdaa700000000000000000000000000000000000000000000000000000000815291166004820152fd5b61480d90615984565b93604096959693919351968796602088017f3c7374796c653e2e62317b66696c6c3a2300000000000000000000000000000090528051908160318a01916020019161485792610434565b8701603181017f3b7d2e62327b66696c6c3a230000000000000000000000000000000000000000905281519182603d8301916020019161489692610434565b01603d81017f3b7d2e62337b66696c6c3a2300000000000000000000000000000000000000009052815191826049830191602001916148d492610434565b0160498101614902907f3b7d2e62347b66696c6c3a2300000000000000000000000000000000000000009052565b60550161490e9161183b565b7f3b7d2e61317b66696c6c3a2300000000000000000000000000000000000000008152600c0161493d9161183b565b7f3b7d2e61327b66696c6c3a2300000000000000000000000000000000000000008152600c0161496c9161183b565b7f3b7d2e61337b66696c6c3a2300000000000000000000000000000000000000008152600c0161499b9161183b565b7f3b7d3c2f7374796c653e000000000000000000000000000000000000000000008152600a016149ca90612772565b03601f198101825261048b90826102ac565b919060608151935f925f9383915f5b6149f4896115f2565b811015614b4d5788811015614b4157614a0d81836116cb565b5193614a19858761327f565b93614a3f611ece614a34613ee161010089015162ffffff1690565b965163ffffffff1690565b915b600386811492908315614b1257505050600195614a5e8389613590565b995b6006878103614ade575050600a6001965b1180614ad4575b614aba575b15159081614ab1575b50614a99575b50600101959291956149eb565b600191966125e9614aaa9288613590565b9590614a8c565b9050155f614a86565b98614ac59198611aa6565b96614ace611a03565b98614a7d565b5089511515614a78565b8791971180614b0a575b614af5575b600a90614a71565b955097614b0190612a3b565b97600195614aed565b508615614ae8565b879b9198929b1180614b39575b15614a6057965097614b3090612988565b97600196614a60565b508715614b1f565b5f936011938591614a41565b5050505050925050565b9190614b85816126678573ffffffffffffffffffffffffffffffffffffffff165f52600b60205260405f2090565b54614b9081856126c4565b818414801590614e19575b614ba7575b5050505050565b8214614e00575b508115614dcc576040517f6352211e000000000000000000000000000000000000000000000000000000008082526004820184905273ffffffffffffffffffffffffffffffffffffffff92918584169060208082602481865afa80156123cb5786925f91614daf575b5082614c21615ac8565b911696168614159384614d37575b50505050614d0d5763ffffffff614c53614c49858761327f565b5163ffffffff1690565b1615614ce35782614c86826126678773ffffffffffffffffffffffffffffffffffffffff165f52600b60205260405f2090565b55614cb3836126678673ffffffffffffffffffffffffffffffffffffffff165f52600e60205260405f2090565b553003614cc8575b50505b5f80808080614ba0565b614cdc913090614cd6615ac8565b90615b4c565b5f80614cbb565b60046040517fe06a750d000000000000000000000000000000000000000000000000000000008152fd5b60046040517f8c7c7aa2000000000000000000000000000000000000000000000000000000008152fd5b819293945090614d6e91614d49615ac8565b95614d548a8c6126c4565b916040518095819482938352600483019190602083019252565b03915afa9081156123cb5783925f92614d92575b505016911614155f808080614c2f565b614da89250803d106130dc576130cd81836102ac565b5f80614d82565b614dc69150823d84116130dc576130cd81836102ac565b5f614c17565b614dfa91506126675f9373ffffffffffffffffffffffffffffffffffffffff165f52600b60205260405f2090565b55614cbe565b614e1390614e0c615ac8565b3086615b4c565b5f614bae565b5082811415614b9b565b81519167ffffffffffffffff831161025357680100000000000000008311610253578154838355808410614e82575b506020809101915f5260205f20905f5b848110614e70575050505050565b83518382015592810192600101614e62565b614e9890835f528460205f209182019101611852565b5f614e52565b909291925f935f915f92614edc614ed7836126678873ffffffffffffffffffffffffffffffffffffffff165f52600a60205260405f2090565b61160d565b955f945f945f908951615419575b90969299935f999899969296975b8251891015615381579a8a9b614f118a859d9c9d6116cb565b51966040519d8e7f6352211e000000000000000000000000000000000000000000000000000000008152808a6004820190614f4e90602083019252565b039173ffffffffffffffffffffffffffffffffffffffff1691815a93602094fa9d8e156123cb575f9e615360575b508d73ffffffffffffffffffffffffffffffffffffffff80614f9c615ac8565b921691161415806152a2575b61527857614fca613ee1610100614fc08f8c9061327f565b015162ffffff1690565b9960028b10801561526e575b615244578b15159081615239575b5061520f5760048a0361514257506001949095919293955b8981111580615139575b1561509a57508a94939291818861502a93141580615088575b61506f575b506116df565b94858c805182105f1461506257610100614fc061504d61505594613ee1946116cb565b51809961327f565b905b959192939490614ffc565b505093505f935f90615057565b6150829061507b615ac8565b3089615b4c565b5f615024565b50896150948289612dde565b1461501f565b93966001929a959d999199969396898d816150b58583612dde565b036150d2575b50505050930197939a949091999899969296614ef8565b836126676150fe9273ffffffffffffffffffffffffffffffffffffffff165f52600f60205260405f2090565b5573ffffffffffffffffffffffffffffffffffffffff30911603615125575b80898d6150bb565b61513390308d614cd6615ac8565b5f61511d565b50801515615006565b939260088a0361515b5750600192959192939490614ffc565b9260058a148015615205575b80156151fb575b806151f4575b156151a35760046040517f9b8fdcd1000000000000000000000000000000000000000000000000000000008152fd5b600a8a1480156151ea575b806151e3575b156150575760046040517f06f75887000000000000000000000000000000000000000000000000000000008152fd5b50836151b4565b5060098a146151ae565b5084615174565b50600b8a1461516e565b5060068a14615167565b60046040517fe1a6af64000000000000000000000000000000000000000000000000000000008152fd5b90508a11155f614fe4565b60046040517fb0ee46ab000000000000000000000000000000000000000000000000000000008152fd5b5060108b11614fd6565b60046040517f032cac03000000000000000000000000000000000000000000000000000000008152fd5b508b73ffffffffffffffffffffffffffffffffffffffff602061530b6152c6615ac8565b936152d18d82612dde565b6040519485809481937f6352211e000000000000000000000000000000000000000000000000000000008352600483019190602083019252565b0392165afa9081156123cb5773ffffffffffffffffffffffffffffffffffffffff9182915f91615341575b501691161415614fa8565b61535a915060203d6020116130dc576130cd81836102ac565b5f615336565b61537a919e5060203d6020116130dc576130cd81836102ac565b9c5f614f7c565b5050979550915091949250805b6153ca5750505061030d92916126676153c59273ffffffffffffffffffffffffffffffffffffffff165f52600a60205260405f2090565b614e23565b9081856153da6153e59487612dde565b1461540657506116df565b81518110156153ff576153f881836116cb565b518061538e565b5f8061538e565b61508290615412615ac8565b3087615b4c565b955050615425886116b9565b519461543a613ee1610100614fc0898c61327f565b90614eea565b604051906105e0820182811067ffffffffffffffff82111761025357604052602e82526105c0366020840137565b9081518110156116c6570160200190565b908151156155b15761548f615440565b915f61549a846116b9565b5260019080515f915b8183106154c8575050506154be6154c39161048b9394615bd6565b615c18565b615c5d565b90919361551061550a6155046154de888661546e565b517fff000000000000000000000000000000000000000000000000000000000000001690565b60f81c90565b60ff1690565b905f915b60ff9088828816851015615574576001929161554961554361550a61553c8961554f966116cb565b5160ff1690565b60081b90565b90611600565b61556b603a9283830616615563878d6116cb565b9060ff169052565b04920191615514565b509196925050805b61558b575060010191906154a3565b9360ff6001603a926155a783858a06166155638584168d6116cb565b011694048061557c565b905061048b613389565b604051906155c882610274565b600682527f66666539303000000000000000000000000000000000000000000000000000006020830152565b6040519061560182610274565b600682527f66666337303000000000000000000000000000000000000000000000000000006020830152565b6040519061563a82610274565b600682527f66336136303300000000000000000000000000000000000000000000000000006020830152565b6040519061567382610274565b600682527f39363561316100000000000000000000000000000000000000000000000000006020830152565b604051906156ac82610274565b600682527f66663763303200000000000000000000000000000000000000000000000000006020830152565b604051906156e582610274565b600682527f66643336303000000000000000000000000000000000000000000000000000006020830152565b6040519061571e82610274565b600682527f63333265306400000000000000000000000000000000000000000000000000006020830152565b6040519061575782610274565b600682527f66666438633500000000000000000000000000000000000000000000000000006020830152565b6040519061579082610274565b600682527f66663936613900000000000000000000000000000000000000000000000000006020830152565b604051906157c982610274565b600682527f66653538386200000000000000000000000000000000000000000000000000006020830152565b6040519061580282610274565b600682527f63393266343500000000000000000000000000000000000000000000000000006020830152565b6040519061583b82610274565b600682527f36376437353700000000000000000000000000000000000000000000000000006020830152565b6040519061587482610274565b600682527f33306132323000000000000000000000000000000000000000000000000000006020830152565b604051906158ad82610274565b600682527f32313761313500000000000000000000000000000000000000000000000000006020830152565b604051906158e682610274565b600682527f30393439306600000000000000000000000000000000000000000000000000006020830152565b6040519061591f82610274565b600682527f65343833656600000000000000000000000000000000000000000000000000006020830152565b6040519061595882610274565b600682527f64633266656600000000000000000000000000000000000000000000000000006020830152565b600181036159cb575061599561582e565b9061599e615867565b906159a76158a0565b906159b06158d9565b906159b9615912565b906159c261594b565b9061048b61594b565b60028103615a1257506159dc61574a565b906159e5615783565b906159ee6157bc565b906159f76157f5565b90615a0061574a565b90615a09615783565b9061048b6157bc565b60038103615a595750615a2361562d565b90615a2c61569f565b90615a356156d8565b90615a3e615711565b90615a4761562d565b90615a5061569f565b9061048b6156d8565b600414615a8a5760046040517f9a7b3323000000000000000000000000000000000000000000000000000000008152fd5b615a926155bb565b90615a9b6155f4565b90615aa461562d565b90615aad615666565b90615ab66155bb565b90615abf6155f4565b9061048b61562d565b73ffffffffffffffffffffffffffffffffffffffff7f000000000000000000000000000000000000000000000000000000000000000016331480615b41575b15615b3d577fffffffffffffffffffffffffffffffffffffffffffffffffffffffffffffffec360136811161075e573560601c90565b3390565b506014361015615b07565b9092919273ffffffffffffffffffffffffffffffffffffffff80921690813b156104c1575f60649281958560405198899788967f42842e0e00000000000000000000000000000000000000000000000000000000885216600487015216602485015260448401525af180156123cb57615bc25750565b67ffffffffffffffff811161025357604052565b9060ff80911690615be68261165b565b925f5b838110615bf7575050505090565b8083615c05600193856116cb565b5116615c1182886116cb565b5201615be9565b908151615c248161165b565b905f5b818110615c35575090925050565b8060ff615c4a5f1960019489510301886116cb565b5116615c5682866116cb565b5201615c27565b8051615c688161131e565b91604090615c7960405194856102ac565b828452615c858361131e565b91601f19602093013660208701375f5b848110615ca457505050505090565b6001907fff00000000000000000000000000000000000000000000000000000000000000615d388451615cd681610290565b603a81527f31323334353637383941424344454647484a4b4c4d4e50515253545556575859888201527f5a6162636465666768696a6b6d6e6f707172737475767778797a0000000000008682015260ff615d3085896116cb565b51169061546e565b51165f1a615d46828961546e565b5301615c9556fea26469706673582212207287b134e86d3169bb88d170013066888fcc563b80b2eb21b1ac3f7aa0adbaf464736f6c63430008170033",
	"deployedBytecode": "0x",
	"gitCommit": "b8fd68f37fbb8d85a53ed051250e6280a383daf8"
}