{
	"format": "sphinx-sol-ct-artifact-1",
	"merkleRoot": "0xedd7f25943824f44a5eb82c68cd4114a68dc8a565af4f5c407f0f31aba4c7533",
	"address": "0x4832d410f976427a4f9085e44817ea10a644ab8b",
	"sourceName": "src/Banny721TokenUriResolver.sol",
	"contractName": "Banny721TokenUriResolver",
	"chainId": "0x14a34",
	"abi": [
		{
			"inputs": [
				{
					"internalType": "string",
					"name": "bannyBody",
					"type": "string"
				},
				{
					"internalType": "string",
					"name": "defaultNecklace",
					"type": "string"
				},
				{
					"internalType": "string",
					"name": "defaultMouth",
					"type": "string"
				},
				{
					"internalType": "string",
					"name": "defaultStandardEyes",
					"type": "string"
				},
				{
					"internalType": "string",
					"name": "defaultAlienEyes",
					"type": "string"
				},
				{
					"internalType": "address",
					"name": "owner",
					"type": "address"
				},
				{
					"internalType": "address",
					"name": "trustedForwarder",
					"type": "address"
				}
			],
			"stateMutability": "nonpayable",
			"type": "constructor"
		},
		{
			"inputs": [],
			"name": "BANNY_BODY",
			"outputs": [
				{
					"internalType": "string",
					"name": "",
					"type": "string"
				}
			],
			"stateMutability": "view",
			"type": "function"
		},
		{
			"inputs": [],
			"name": "DEFAULT_ALIEN_EYES",
			"outputs": [
				{
					"internalType": "string",
					"name": "",
					"type": "string"
				}
			],
			"stateMutability": "view",
			"type": "function"
		},
		{
			"inputs": [],
			"name": "DEFAULT_MOUTH",
			"outputs": [
				{
					"internalType": "string",
					"name": "",
					"type": "string"
				}
			],
			"stateMutability": "view",
			"type": "function"
		},
		{
			"inputs": [],
			"name": "DEFAULT_NECKLACE",
			"outputs": [
				{
					"internalType": "string",
					"name": "",
					"type": "string"
				}
			],
			"stateMutability": "view",
			"type": "function"
		},
		{
			"inputs": [],
			"name": "DEFAULT_STANDARD_EYES",
			"outputs": [
				{
					"internalType": "string",
					"name": "",
					"type": "string"
				}
			],
			"stateMutability": "view",
			"type": "function"
		},
		{
			"inputs": [
				{
					"internalType": "address",
					"name": "hook",
					"type": "address"
				},
				{
					"internalType": "uint256",
					"name": "bannyBodyId",
					"type": "uint256"
				}
			],
			"name": "assetIdsOf",
			"outputs": [
				{
					"internalType": "uint256",
					"name": "backgroundId",
					"type": "uint256"
				},
				{
					"internalType": "uint256[]",
					"name": "outfitIds",
					"type": "uint256[]"
				}
			],
			"stateMutability": "view",
			"type": "function"
		},
		{
			"inputs": [
				{
					"internalType": "address",
					"name": "hook",
					"type": "address"
				},
				{
					"internalType": "uint256",
					"name": "bannyBodyId",
					"type": "uint256"
				},
				{
					"internalType": "uint256",
					"name": "backgroundId",
					"type": "uint256"
				},
				{
					"internalType": "uint256[]",
					"name": "outfitIds",
					"type": "uint256[]"
				}
			],
			"name": "decorateBannyWith",
			"outputs": [],
			"stateMutability": "nonpayable",
			"type": "function"
		},
		{
			"inputs": [
				{
					"internalType": "address",
					"name": "forwarder",
					"type": "address"
				}
			],
			"name": "isTrustedForwarder",
			"outputs": [
				{
					"internalType": "bool",
					"name": "",
					"type": "bool"
				}
			],
			"stateMutability": "view",
			"type": "function"
		},
		{
			"inputs": [
				{
					"internalType": "address",
					"name": "hook",
					"type": "address"
				},
				{
					"internalType": "uint256",
					"name": "bannyBodyId",
					"type": "uint256"
				}
			],
			"name": "lockOutfitChangesFor",
			"outputs": [],
			"stateMutability": "nonpayable",
			"type": "function"
		},
		{
			"inputs": [
				{
					"internalType": "address",
					"name": "hook",
					"type": "address"
				},
				{
					"internalType": "uint256",
					"name": "tokenId",
					"type": "uint256"
				}
			],
			"name": "namesOf",
			"outputs": [
				{
					"internalType": "string",
					"name": "",
					"type": "string"
				},
				{
					"internalType": "string",
					"name": "",
					"type": "string"
				},
				{
					"internalType": "string",
					"name": "",
					"type": "string"
				}
			],
			"stateMutability": "view",
			"type": "function"
		},
		{
			"inputs": [
				{
					"internalType": "address",
					"name": "operator",
					"type": "address"
				},
				{
					"internalType": "address",
					"name": "from",
					"type": "address"
				},
				{
					"internalType": "uint256",
					"name": "tokenId",
					"type": "uint256"
				},
				{
					"internalType": "bytes",
					"name": "data",
					"type": "bytes"
				}
			],
			"name": "onERC721Received",
			"outputs": [
				{
					"internalType": "bytes4",
					"name": "",
					"type": "bytes4"
				}
			],
			"stateMutability": "view",
			"type": "function"
		},
		{
			"inputs": [
				{
					"internalType": "address",
					"name": "hook",
					"type": "address"
				},
				{
					"internalType": "uint256",
					"name": "upc",
					"type": "uint256"
				}
			],
			"name": "outfitLockedUntil",
			"outputs": [
				{
					"internalType": "uint256",
					"name": "",
					"type": "uint256"
				}
			],
			"stateMutability": "view",
			"type": "function"
		},
		{
			"inputs": [],
			"name": "owner",
			"outputs": [
				{
					"internalType": "address",
					"name": "",
					"type": "address"
				}
			],
			"stateMutability": "view",
			"type": "function"
		},
		{
			"inputs": [],
			"name": "renounceOwnership",
			"outputs": [],
			"stateMutability": "nonpayable",
			"type": "function"
		},
		{
			"inputs": [
				{
					"internalType": "uint256[]",
					"name": "upcs",
					"type": "uint256[]"
				},
				{
					"internalType": "string[]",
					"name": "names",
					"type": "string[]"
				}
			],
			"name": "setProductNames",
			"outputs": [],
			"stateMutability": "nonpayable",
			"type": "function"
		},
		{
			"inputs": [
				{
					"internalType": "string",
					"name": "baseUri",
					"type": "string"
				}
			],
			"name": "setSvgBaseUri",
			"outputs": [],
			"stateMutability": "nonpayable",
			"type": "function"
		},
		{
			"inputs": [
				{
					"internalType": "uint256[]",
					"name": "upcs",
					"type": "uint256[]"
				},
				{
					"internalType": "string[]",
					"name": "svgContents",
					"type": "string[]"
				}
			],
			"name": "setSvgContentsOf",
			"outputs": [],
			"stateMutability": "nonpayable",
			"type": "function"
		},
		{
			"inputs": [
				{
					"internalType": "uint256[]",
					"name": "upcs",
					"type": "uint256[]"
				},
				{
					"internalType": "bytes32[]",
					"name": "svgHashs",
					"type": "bytes32[]"
				}
			],
			"name": "setSvgHashsOf",
			"outputs": [],
			"stateMutability": "nonpayable",
			"type": "function"
		},
		{
			"inputs": [],
			"name": "svgBaseUri",
			"outputs": [
				{
					"internalType": "string",
					"name": "",
					"type": "string"
				}
			],
			"stateMutability": "view",
			"type": "function"
		},
		{
			"inputs": [
				{
					"internalType": "uint256",
					"name": "upc",
					"type": "uint256"
				}
			],
			"name": "svgHashOf",
			"outputs": [
				{
					"internalType": "bytes32",
					"name": "",
					"type": "bytes32"
				}
			],
			"stateMutability": "view",
			"type": "function"
		},
		{
			"inputs": [
				{
					"internalType": "address",
					"name": "hook",
					"type": "address"
				},
				{
					"internalType": "uint256",
					"name": "tokenId",
					"type": "uint256"
				},
				{
					"internalType": "bool",
					"name": "shouldDressBannyBody",
					"type": "bool"
				},
				{
					"internalType": "bool",
					"name": "shouldIncludeBackgroundOnBannyBody",
					"type": "bool"
				}
			],
			"name": "svgOf",
			"outputs": [
				{
					"internalType": "string",
					"name": "",
					"type": "string"
				}
			],
			"stateMutability": "view",
			"type": "function"
		},
		{
			"inputs": [
				{
					"internalType": "address",
					"name": "hook",
					"type": "address"
				},
				{
					"internalType": "uint256",
					"name": "tokenId",
					"type": "uint256"
				}
			],
			"name": "tokenUriOf",
			"outputs": [
				{
					"internalType": "string",
					"name": "",
					"type": "string"
				}
			],
			"stateMutability": "view",
			"type": "function"
		},
		{
			"inputs": [
				{
					"internalType": "address",
					"name": "newOwner",
					"type": "address"
				}
			],
			"name": "transferOwnership",
			"outputs": [],
			"stateMutability": "nonpayable",
			"type": "function"
		},
		{
			"inputs": [],
			"name": "trustedForwarder",
			"outputs": [
				{
					"internalType": "address",
					"name": "",
					"type": "address"
				}
			],
			"stateMutability": "view",
			"type": "function"
		},
		{
			"inputs": [
				{
					"internalType": "address",
					"name": "hook",
					"type": "address"
				},
				{
					"internalType": "uint256",
					"name": "backgroundId",
					"type": "uint256"
				}
			],
			"name": "userOf",
			"outputs": [
				{
					"internalType": "uint256",
					"name": "",
					"type": "uint256"
				}
			],
			"stateMutability": "view",
			"type": "function"
		},
		{
			"inputs": [
				{
					"internalType": "address",
					"name": "hook",
					"type": "address"
				},
				{
					"internalType": "uint256",
					"name": "outfitId",
					"type": "uint256"
				}
			],
			"name": "wearerOf",
			"outputs": [
				{
					"internalType": "uint256",
					"name": "",
					"type": "uint256"
				}
			],
			"stateMutability": "view",
			"type": "function"
		},
		{
			"anonymous": false,
			"inputs": [
				{
					"indexed": true,
					"internalType": "address",
					"name": "hook",
					"type": "address"
				},
				{
					"indexed": true,
					"internalType": "uint256",
					"name": "bannyBodyId",
					"type": "uint256"
				},
				{
					"indexed": true,
					"internalType": "uint256",
					"name": "backgroundId",
					"type": "uint256"
				},
				{
					"indexed": false,
					"internalType": "uint256[]",
					"name": "outfitIds",
					"type": "uint256[]"
				},
				{
					"indexed": false,
					"internalType": "address",
					"name": "caller",
					"type": "address"
				}
			],
			"name": "DecorateBanny",
			"type": "event"
		},
		{
			"anonymous": false,
			"inputs": [
				{
					"indexed": true,
					"internalType": "address",
					"name": "previousOwner",
					"type": "address"
				},
				{
					"indexed": true,
					"internalType": "address",
					"name": "newOwner",
					"type": "address"
				}
			],
			"name": "OwnershipTransferred",
			"type": "event"
		},
		{
			"anonymous": false,
			"inputs": [
				{
					"indexed": true,
					"internalType": "uint256",
					"name": "upc",
					"type": "uint256"
				},
				{
					"indexed": false,
					"internalType": "string",
					"name": "name",
					"type": "string"
				},
				{
					"indexed": false,
					"internalType": "address",
					"name": "caller",
					"type": "address"
				}
			],
			"name": "SetProductName",
			"type": "event"
		},
		{
			"anonymous": false,
			"inputs": [
				{
					"indexed": false,
					"internalType": "string",
					"name": "baseUri",
					"type": "string"
				},
				{
					"indexed": false,
					"internalType": "address",
					"name": "caller",
					"type": "address"
				}
			],
			"name": "SetSvgBaseUri",
			"type": "event"
		},
		{
			"anonymous": false,
			"inputs": [
				{
					"indexed": true,
					"internalType": "uint256",
					"name": "upc",
					"type": "uint256"
				},
				{
					"indexed": false,
					"internalType": "string",
					"name": "svgContent",
					"type": "string"
				},
				{
					"indexed": false,
					"internalType": "address",
					"name": "caller",
					"type": "address"
				}
			],
			"name": "SetSvgContent",
			"type": "event"
		},
		{
			"anonymous": false,
			"inputs": [
				{
					"indexed": true,
					"internalType": "uint256",
					"name": "upc",
					"type": "uint256"
				},
				{
					"indexed": true,
					"internalType": "bytes32",
					"name": "svgHash",
					"type": "bytes32"
				},
				{
					"indexed": false,
					"internalType": "address",
					"name": "caller",
					"type": "address"
				}
			],
			"name": "SetSvgHash",
			"type": "event"
		},
		{
			"inputs": [],
			"name": "Banny721TokenUriResolver_CantAccelerateTheLock",
			"type": "error"
		},
		{
			"inputs": [],
			"name": "Banny721TokenUriResolver_ContentsAlreadyStored",
			"type": "error"
		},
		{
			"inputs": [],
			"name": "Banny721TokenUriResolver_ContentsMismatch",
			"type": "error"
		},
		{
			"inputs": [],
			"name": "Banny721TokenUriResolver_HashAlreadyStored",
			"type": "error"
		},
		{
			"inputs": [],
			"name": "Banny721TokenUriResolver_HashNotFound",
			"type": "error"
		},
		{
			"inputs": [],
			"name": "Banny721TokenUriResolver_HeadAlreadyAdded",
			"type": "error"
		},
		{
			"inputs": [],
			"name": "Banny721TokenUriResolver_OutfitChangesLocked",
			"type": "error"
		},
		{
			"inputs": [],
			"name": "Banny721TokenUriResolver_SuitAlreadyAdded",
			"type": "error"
		},
		{
			"inputs": [],
			"name": "Banny721TokenUriResolver_UnauthorizedBackground",
			"type": "error"
		},
		{
			"inputs": [],
			"name": "Banny721TokenUriResolver_UnauthorizedBannyBody",
			"type": "error"
		},
		{
			"inputs": [],
			"name": "Banny721TokenUriResolver_UnauthorizedOutfit",
			"type": "error"
		},
		{
			"inputs": [],
			"name": "Banny721TokenUriResolver_UnauthorizedTransfer",
			"type": "error"
		},
		{
			"inputs": [],
			"name": "Banny721TokenUriResolver_UnorderedCategories",
			"type": "error"
		},
		{
			"inputs": [],
			"name": "Banny721TokenUriResolver_UnrecognizedBackground",
			"type": "error"
		},
		{
			"inputs": [],
			"name": "Banny721TokenUriResolver_UnrecognizedCategory",
			"type": "error"
		},
		{
			"inputs": [],
			"name": "Banny721TokenUriResolver_UnrecognizedProduct",
			"type": "error"
		},
		{
			"inputs": [
				{
					"internalType": "address",
					"name": "owner",
					"type": "address"
				}
			],
			"name": "OwnableInvalidOwner",
			"type": "error"
		},
		{
			"inputs": [
				{
					"internalType": "address",
					"name": "account",
					"type": "address"
				}
			],
			"name": "OwnableUnauthorizedAccount",
			"type": "error"
		},
		{
			"inputs": [],
			"name": "ReentrancyGuardReentrantCall",
			"type": "error"
		}
	],
	"args": [],
	"solcInputHash": "f0d175d909adeb3e89fc8df8b2a621f4",
	"bytecode": "0x60a0604052346200076857620062f2803803806200001d816200076c565b928339810160e082820312620007685781516001600160401b03908181116200076857826200004e91850162000792565b602093848101518381116200076857846200006b91830162000792565b9360408201518481116200076857816200008791840162000792565b6060830151858111620007685782620000a291850162000792565b916080840151908682116200076857620000be91850162000792565b92620000db60c0620000d360a0840162000802565b920162000802565b906001600160a01b0390811690811562000750575f548260018060a01b03198216175f55167f8be0079c531659141344cd1fd0a4f28419497f9722a3daafe3b4186f6b6457e05f80a36080526001958680558451868111620003f657600954958887811c9716801562000745575b8a881014620003d7578190601f97888111620006f1575b508a9088831160011462000689575f926200067d575b50505f19600383901b1c191690881b176009555b805190868211620003f657600754908882811c9216801562000672575b8a831014620003d75781878493116200061e575b508990878311600114620005b8575f92620005ac575b50505f19600383901b1c191690871b176007555b805190858211620003f657600654908782811c92168015620005a1575b89831014620003d75781868493116200054d575b508890868311600114620004e7575f92620004db575b50505f19600383901b1c191690861b176006555b805190848211620003f657600854908682811c92168015620004d0575b88831014620003d75781858493116200047c575b50879085831160011462000416575f926200040a575b50505f19600383901b1c191690851b176008555b8051928311620003f65760059485548581811c91168015620003eb575b82821014620003d75783811162000391575b50809284116001146200032a57509282939183925f946200031e575b50501b915f199060031b1c19161790555b604051615ada9081620008188239608051818181610ad601528181610cae015261587a0152f35b015192505f80620002e6565b919083601f198116875f52845f20945f905b888383106200037657505050106200035d575b505050811b019055620002f7565b01515f1960f88460031b161c191690555f80806200034f565b8587015188559096019594850194879350908101906200033c565b865f52815f2084808701891c820192848810620003cd575b01881c019086905b828110620003c1575050620002ca565b5f8155018690620003b1565b92508192620003a9565b634e487b7160e01b5f52602260045260245ffd5b90607f1690620002b8565b634e487b7160e01b5f52604160045260245ffd5b015190505f8062000287565b90879350601f1983169160085f52895f20925f5b8b8282106200046557505084116200044c575b505050811b016008556200029b565b01515f1960f88460031b161c191690555f80806200043d565b8385015186558b979095019493840193016200042a565b90915060085f52875f208580850160051c8201928a8610620004c6575b918991869594930160051c01915b828110620004b757505062000271565b5f8155859450899101620004a7565b9250819262000499565b91607f16916200025d565b015190505f806200022c565b90889350601f1983169160065f528a5f20925f5b8c8282106200053657505084116200051d575b505050811b0160065562000240565b01515f1960f88460031b161c191690555f80806200050e565b8385015186558c97909501949384019301620004fb565b90915060065f52885f208680850160051c8201928b861062000597575b918a91869594930160051c01915b8281106200058857505062000216565b5f81558594508a910162000578565b925081926200056a565b91607f169162000202565b015190505f80620001d1565b90899350601f1983169160075f528b5f20925f5b8d828210620006075750508411620005ee575b505050811b01600755620001e5565b01515f1960f88460031b161c191690555f8080620005df565b8385015186558d97909501949384019301620005cc565b90915060075f52895f208780850160051c8201928c861062000668575b918b91869594930160051c01915b82811062000659575050620001bb565b5f81558594508b910162000649565b925081926200063b565b91607f1691620001a7565b015190505f8062000176565b908a9350601f1983169160095f528c5f20928d5f905b828210620006d95750508411620006c0575b505050811b016009556200018a565b01515f1960f88460031b161c191690555f8080620006b1565b8385015186558e979095019493840193018e6200069f565b90915060095f528a5f208880850160051c8201928d86106200073b575b918c91869594930160051c01915b8281106200072c57505062000160565b5f81558594508c91016200071c565b925081926200070e565b96607f169662000149565b604051631e4fbdf760e01b81525f6004820152602490fd5b5f80fd5b6040519190601f01601f191682016001600160401b03811183821017620003f657604052565b919080601f84011215620007685782516001600160401b038111620003f657602090620007c8601f8201601f191683016200076c565b9281845282828701011162000768575f5b818110620007ee5750825f9394955001015290565b8581018301518482018401528201620007d9565b51906001600160a01b0382168203620007685756fe60806040526004361015610011575f80fd5b5f3560e01c806257bfdd146101b357806305b2ae1b146101ae578063150b7a02146101a9578063187be308146101a457806318ab522d1461019f5780632150a1381461019a5780632580833d1461019557806331a290ac14610190578063572b6c051461018b57806359a81d91146101865780635e703e71146101815780636aff31dd1461017c578063715018a61461017757806379a2696e146101725780637da0a8771461016d578063875e4bea146101685780638da5cb5b14610163578063a0122c091461015e578063a22d0dd514610159578063b03a3eab14610154578063b1fa9e7b1461014f578063b3fa27831461014a578063c06e7bc714610145578063c122804614610140578063d756227e1461013b5763f2fde38b14610136575f80fd5b611371565b6112a1565b611207565b6110b9565b611014565b610fe9565b610f45565b610f00565b610e64565b610e3f565b610cd2565b610c8f565b610c5c565b610bf8565b610bce565b610ba2565b610afd565b610aa7565b61093f565b6107db565b610736565b6106bf565b610629565b6105ab565b610490565b610459565b90600182811c921680156101e6575b60208310146101d257565b634e487b7160e01b5f52602260045260245ffd5b91607f16916101c7565b634e487b7160e01b5f52604160045260245ffd5b6101e0810190811067ffffffffffffffff82111761022157604052565b6101f0565b6020810190811067ffffffffffffffff82111761022157604052565b6040810190811067ffffffffffffffff82111761022157604052565b6060810190811067ffffffffffffffff82111761022157604052565b90601f8019910116810190811067ffffffffffffffff82111761022157604052565b604051905f82600354916102af836101b8565b8083529260209060019081811690811561033b57506001146102dc575b50506102da9250038361027a565b565b91509260035f527fc2575a0e9e593c00f959f8c92f12db2869c3395a3b0502d05e2516446f71f85b935f925b82841061032357506102da9450505081016020015f806102cc565b85548885018301529485019487945092810192610308565b915050602092506102da94915060ff191682840152151560051b8201015f806102cc565b9060405191825f8254610371816101b8565b908184526020946001916001811690815f146103dd575060011461039f575b5050506102da9250038361027a565b5f90815285812095935091905b8183106103c55750506102da93508201015f8080610390565b855488840185015294850194879450918301916103ac565b925050506102da94925060ff191682840152151560051b8201015f8080610390565b5f5b8381106104105750505f910152565b8181015183820152602001610401565b90602091610439815180928185528580860191016103ff565b601f01601f1916010190565b906020610456928181520190610420565b90565b3461048c575f36600319011261048c5761048861047461029c565b604051918291602083526020830190610420565b0390f35b5f80fd5b3461048c575f36600319011261048c576040515f6008546104b0816101b8565b8084529060209060019081811690811561054257506001146104e9575b610488856104dd8187038261027a565b60405191829182610445565b60085f90815293507ff3f7a9fe364faab93b216da50a3214154f22a0a2b415b23a84c8169e8b636ee35b83851061052f575050505081016020016104dd826104886104cd565b8054868601840152938201938101610513565b869550610488969350602092506104dd94915060ff191682840152151560051b82010192936104cd565b6001600160a01b0381160361048c57565b9181601f8401121561048c5782359167ffffffffffffffff831161048c576020838186019501011161048c57565b3461048c57608036600319011261048c576004356105c88161056c565b6105d360243561056c565b60643567ffffffffffffffff811161048c576105f390369060040161057d565b50506001600160a01b033091160361061757604051630a85bd0160e11b8152602090f35b604051633b2c6aa160e21b8152600490fd5b3461048c57604036600319011261048c576004356106468161056c565b6001600160a01b036024359161065c8382613325565b16805f52600260205260405f20825f5260205260405f20549162093a804201928342116106ba5783106106a8576106a5915f52600260205260405f20905f5260205260405f2090565b55005b604051631057c89560e21b8152600490fd5b611405565b3461048c57604036600319011261048c576106e86004356106df8161056c565b60243590611518565b90604051918291604083019083526020906040602085015282518091526020606085019301915f5b82811061071f57505050500390f35b835185528695509381019392810192600101610710565b3461048c575f36600319011261048c576040515f600554610756816101b8565b80845290602090600190818116908115610542575060011461078257610488856104dd8187038261027a565b60055f90815293507f036b6384b5eca791c62761152d0c79bb0604c104a5fb6f4eb0703f3154bb3db05b8385106107c8575050505081016020016104dd826104886104cd565b80548686018401529382019381016107ac565b3461048c575f36600319011261048c576040515f6006546107fb816101b8565b80845290602090600190818116908115610542575060011461082757610488856104dd8187038261027a565b60065f90815293507ff652222313e28459528d920b65115c16c04f3efc82aaedc97be59f3f377c0d3f5b83851061086d575050505081016020016104dd826104886104cd565b8054868601840152938201938101610851565b604051906102da82610204565b67ffffffffffffffff81116102215760051b60200190565b92916108b08261088d565b916108be604051938461027a565b829481845260208094019160051b810192831161048c57905b8282106108e45750505050565b813581529083019083016108d7565b9080601f8301121561048c57816020610456933591016108a5565b9181601f8401121561048c5782359167ffffffffffffffff831161048c576020808501948460051b01011161048c57565b3461048c5760408060031936011261048c5760049067ffffffffffffffff823581811161048c5761097390369085016108f3565b9060243590811161048c5761098b903690850161090e565b9290915f5b8151811015610aa5576109a381836114f6565b516109b96109b28388886115e2565b369161126b565b6109d36109ce835f52600d60205260405f2090565b611624565b610a95576109e9825f52600460205260405f2090565b548015610a855785516020810190610a1381610a05848761162e565b03601f19810183528261027a565b51902003610a7557907faeb631726b45aa3f6b09da79f7af03a9784614901f61a967ed84d63c37b7edc7610a6c83610a5f60019695610a5a865f52600d60205260405f2090565b6116f3565b87519182913390836117c3565b0390a201610990565b845163d8e55daf60e01b81528890fd5b85516338d87d3960e01b81528990fd5b845163444244f560e01b81528890fd5b005b3461048c57602036600319011261048c576020600435610ac68161056c565b6001600160a01b039060405191807f0000000000000000000000000000000000000000000000000000000000000000169116148152f35b3461048c575f36600319011261048c576040515f600954610b1d816101b8565b808452906020906001908181169081156105425750600114610b4957610488856104dd8187038261027a565b60095f90815293507f6e1540171b6c0c960b71a7020d9f60077f6af931a8bbf590da0223dacf75c7af5b838510610b8f575050505081016020016104dd826104886104cd565b8054868601840152938201938101610b73565b3461048c57604036600319011261048c57610488610474600435610bc58161056c565b6024359061209c565b3461048c57602036600319011261048c576004355f526004602052602060405f2054604051908152f35b3461048c575f36600319011261048c57610c10614736565b5f6001600160a01b03815473ffffffffffffffffffffffffffffffffffffffff1981168355167f8be0079c531659141344cd1fd0a4f28419497f9722a3daafe3b4186f6b6457e08280a3005b3461048c57604036600319011261048c576020610c87600435610c7e8161056c565b60243590612a0e565b604051908152f35b3461048c575f36600319011261048c5760206040516001600160a01b037f0000000000000000000000000000000000000000000000000000000000000000168152f35b3461048c5760208060031936011261048c5767ffffffffffffffff60043581811161048c57610d0590369060040161057d565b9091610d0f614736565b811161022157610d2981610d246003546101b8565b61165b565b5f92601f8211600114610d9d5750610d7881807f512c3c91736f50c57a0548c1d01ab02f24c420f002b8b20e2bfe63df9693cd3f955f91610d92575b508160011b915f199060031b1c19161790565b6003555b610d8d604051928392339184612a69565b0390a1005b90508401355f610d65565b60035f52601f198216937fc2575a0e9e593c00f959f8c92f12db2869c3395a3b0502d05e2516446f71f85b915f905b868210610e27575050827f512c3c91736f50c57a0548c1d01ab02f24c420f002b8b20e2bfe63df9693cd3f9510610e0e575b5050600181811b01600355610d7c565b8301355f19600384901b60f8161c191690555f80610dfe565b80600184958294958901358155019401920190610dcc565b3461048c575f36600319011261048c5760206001600160a01b035f5416604051908152f35b3461048c57604036600319011261048c57610eda600435610e848161056c565b610488610e9e610e976024358094613552565b809361447a565b91610ee8610ec563ffffffff610ebd62ffffff61010086015116613b28565b935116613d17565b91604051958695606087526060870190610420565b908582036020870152610420565b908382036040850152610420565b8015150361048c57565b3461048c57608036600319011261048c57610488610474600435610f238161056c565b604435610f2f81610ef6565b60643591610f3c83610ef6565b60243590612f4f565b3461048c57604036600319011261048c5767ffffffffffffffff60043581811161048c57610f779036906004016108f3565b9060243590811161048c573660238201121561048c578060040135610f9b8161088d565b91610fa9604051938461027a565b8183526020916024602085019160051b8301019136831161048c57602401905b828210610fda57610aa58587613070565b81358152908301908301610fc9565b3461048c57604036600319011261048c576020610c8760043561100b8161056c565b60243590613107565b3461048c575f36600319011261048c576040515f600754611034816101b8565b80845290602090600190818116908115610542575060011461106057610488856104dd8187038261027a565b60075f90815293507fa66cc928b5edb82af9bd49922954155ab7b0942694bea4ce44661d9a8736c6885b8385106110a6575050505081016020016104dd826104886104cd565b805486860184015293820193810161108a565b3461048c57608036600319011261048c576004356110d68161056c565b6044359060243560643567ffffffffffffffff811161048c576110fd90369060040161090e565b906002600154146111f55760026001556111178385613325565b6001600160a01b039182851692835f526002602052604096875f20865f52602052875f205442106111e45761114a615870565b97838151918083528201527f07ffffffffffffffffffffffffffffffffffffffffffffffffffffffffffffff841161048c57866111d5967f6a68946ba06488db8585d7c7637fa954b574035fe15720ea760125ef8601725883606086958a6111db9f996111ce9a8c60051b8093868601371660208301528101030190a48587614ac8565b36916108a5565b91614d7b565b610aa560018055565b8751632d2f65a360e11b8152600490fd5b604051633ee5aeb560e01b8152600490fd5b3461048c57604036600319011261048c576001600160a01b0360043561122c8161056c565b165f52600260205260405f206024355f52602052602060405f2054604051908152f35b67ffffffffffffffff811161022157601f01601f191660200190565b9291926112778261124f565b91611285604051938461027a565b82948184528183011161048c578281602093845f960137010152565b3461048c57604036600319011261048c5767ffffffffffffffff60043581811161048c576112d39036906004016108f3565b60249060243583811161048c573660238201121561048c578060040135926112fa8461088d565b93611308604051958661027a565b8085526020956024602087019260051b8501019336851161048c5760248101925b85841061133a57610aa58888613196565b833583811161048c5782013660438201121561048c5789916113668392369060448a820135910161126b565b815201930192611329565b3461048c57602036600319011261048c5760043561138e8161056c565b611396614736565b6001600160a01b038091169081156113ed575f548273ffffffffffffffffffffffffffffffffffffffff198216175f55167f8be0079c531659141344cd1fd0a4f28419497f9722a3daafe3b4186f6b6457e05f80a3005b604051631e4fbdf760e01b81525f6004820152602490fd5b634e487b7160e01b5f52601160045260245ffd5b90600282018092116106ba57565b90602082018092116106ba57565b90600182018092116106ba57565b919082018092116106ba57565b90604051918281549182825260209260208301915f5260205f20935f905b828210611484575050506102da9250038361027a565b85548452600195860195889550938101939091019061146e565b906114a88261088d565b6114b5604051918261027a565b82815280926114c6601f199161088d565b0190602036910137565b634e487b7160e01b5f52603260045260245ffd5b8051156114f15760200190565b6114d0565b80518210156114f15760209160051b010190565b5f1981146106ba5760010190565b9190915f926001600160a01b0382165f52600a60205260405f20815f5260205261154460405f20611450565b9361154f855161149e565b915f915f5b875181101561159d578061156a6001928a6114f6565b5184611576828a613107565b14611583575b5001611554565b61159661158f8761150a565b96886114f6565b525f61157c565b5095509050929190926115c1826001600160a01b03165f52600b60205260405f2090565b815f526020526115d660405f20548093612a0e565b146115de5750565b9250565b91908110156114f15760051b81013590601e198136030182121561048c57019081359167ffffffffffffffff831161048c57602001823603811361048c579190565b61045690546101b8565b90611641602092828151948592016103ff565b0190565b818110611650575050565b5f8155600101611645565b90601f8211611668575050565b6102da9160035f527fc2575a0e9e593c00f959f8c92f12db2869c3395a3b0502d05e2516446f71f85b906020601f840160051c830193106116b1575b601f0160051c0190611645565b90915081906116a4565b9190601f81116116ca57505050565b6102da925f5260205f20906020601f840160051c830193106116b157601f0160051c0190611645565b919091825167ffffffffffffffff81116102215761171b8161171584546101b8565b846116bb565b602080601f831160011461175c5750819061174d9394955f92611751575b50508160011b915f199060031b1c19161790565b9055565b015190505f80611739565b90601f19831695611770855f5260205f2090565b925f905b8882106117ab57505083600195969710611793575b505050811b019055565b01515f1960f88460031b161c191690555f8080611789565b80600185968294968601518155019501930190611774565b906001600160a01b036117e3602092959495604085526040850190610420565b9416910152565b604051906117f782610226565b5f8252565b6040519061180982610242565b600f82527f2261747472696275746573223a205b00000000000000000000000000000000006020830152565b6040519061184282610242565b600e82527f226f7574666974496473223a205b0000000000000000000000000000000000006020830152565b9060405191826060515f5b8181106118ad57509060206102da936118a182948401918383015f81528151948592016103ff565b0103808552018361027a565b6020919250806080015182828801015201908491611879565b60206102da9193929360405194816118e787935180928680870191016103ff565b82016118a1825180938680850191016103ff565b5f198101919082116106ba57565b906102da6021604051846119278296518092602080860191016103ff565b8101600b60fa1b602082015203600181018552018361027a565b906102da60226040518461195f8296518092602080860191016103ff565b810161174b60f21b602082015203600281018552018361027a565b6040906102da92949394825195869160209361199e815180928780880191016103ff565b83017f7b2274726169745f74797065223a202200000000000000000000000000000000858201526119d882518093876030850191016103ff565b016c111610113b30b63ab2911d101160991b6030820152611a028251809386603d850191016103ff565b0162089f4b60ea1b603d820152039081018552018361027a565b906102da604a60405184611a3a8296518092602080860191016103ff565b81017f7b2274726169745f74797065223a20224261636b67726f756e64222c2022766160208201527f6c7565223a2022227d2c00000000000000000000000000000000000000000000604082015203602a81018552018361027a565b60316102da919392936040519481611ab88793518092602080870191016103ff565b82017f226261636b67726f756e644964223a20000000000000000000000000000000006020820152611af48251809360206030850191016103ff565b01600b60fa1b603082015203601181018552018361027a565b604a6102da919392936040519481611b2f8793518092602080870191016103ff565b82017f7b2274726169745f74797065223a20224261636b67726f756e64222c2022766160208201527f6c7565223a2022000000000000000000000000000000000000000000000000006040820152611b918251809360206047850191016103ff565b0162089f4b60ea1b604782015203602a81018552018361027a565b60376102da919392936040519481611bce8793518092602080870191016103ff565b82017f226368616e6765734c6f636b6564556e74696c223a20000000000000000000006020820152611c0a8251809360206036850191016103ff565b01600b60fa1b603682015203601781018552018361027a565b60526102da919392936040519481611c458793518092602080870191016103ff565b82017f7b2274726169745f74797065223a20224368616e676573206c6f636b6564207560208201527f6e74696c222c202276616c7565223a20000000000000000000000000000000006040820152611ca78251809360206050850191016103ff565b01611f4b60f21b605082015203603281018552018361027a565b906102da603660405180947f22776f726e427942616e6e79426f64794964223a2000000000000000000000006020830152611d068151809260206035860191016103ff565b8101600b60fa1b603582015203601681018552018361027a565b604b6102da919392936040519481611d428793518092602080870191016103ff565b82017f7b2274726169745f74797065223a2022576f726e2062792042616e6e79222c206020820152680113b30b63ab2911d160bd1b6040820152611d908251809360206049850191016103ff565b01611f4b60f21b604982015203602b81018552018361027a565b906102da603660405180947f2275736564427942616e6e79426f64794964223a2000000000000000000000006020830152611d068151809260206035860191016103ff565b604b6102da919392936040519481611e118793518092602080870191016103ff565b82017f7b2274726169745f74797065223a2022557365642062792042616e6e79222c206020820152680113b30b63ab2911d160bd1b6040820152611d908251809360206049850191016103ff565b81601f8201121561048c578051611e758161124f565b92611e83604051948561027a565b8184526020828401011161048c5761045691602080850191016103ff565b9060208282031261048c57815167ffffffffffffffff811161048c576104569201611e5f565b6040513d5f823e3d90fd5b9081602091031261048c575190565b9081606091031261048c57805191604060208301519201516104568161056c565b612030600392959460a46102da956040519885611f298b975180926020808b0191016103ff565b86017f7b2274726169745f74797065223a202250726f64756374206e616d65222c202260208201527f76616c7565223a202200000000000000000000000000000000000000000000006040820152611f8b8251809360206049850191016103ff565b017f227d2c207b2274726169745f74797065223a202243617465676f7279206e616d60498201527f65222c202276616c7565223a20220000000000000000000000000000000000006069820152611fec8251809360206077850191016103ff565b017f227d2c207b2274726169745f74797065223a2022546f74616c20737570706c7960778201526c111610113b30b63ab2911d101160991b6097820152019061162e565b62227d5d60e81b815203601c1981018552018361027a565b906102da603d60405180947f646174613a6170706c69636174696f6e2f6a736f6e3b6261736536342c000000602083015261208c81518092602086860191016103ff565b810103601d81018552018361027a565b6120a68282613552565b9163ffffffff6120ba845163ffffffff1690565b1615612a03576120c86117ea565b506120d16117fc565b610100928385019462ffffff94856120ec885162ffffff1690565b16156128345750612116612110612107835163ffffffff1690565b63ffffffff1690565b83613d6e565b9182516127f8575b60018661212e895162ffffff1690565b16036127ca576121626121418683612a0e565b9461215c61215661215188613674565b611daa565b96613674565b90611def565b955b8351156126a857509060606001600160a01b0394939260046040518097819363043c358d60e11b8352165afa9384156126a3575f905f9561266e575b5081516121b29063ffffffff16613d17565b9688516121c19062ffffff1690565b62ffffff166121cf90613b28565b97606084019889516121e49063ffffffff1690565b63ffffffff166121f390613674565b916121fd93611f02565b94612208838861447a565b9783516122189063ffffffff1690565b63ffffffff1661222790613d17565b9980516122369062ffffff1690565b62ffffff1661224490613b28565b9861224e90613674565b91855161225e9063ffffffff1690565b63ffffffff1661226d90613674565b915161227d9062ffffff16613674565b905161228e9063ffffffff16613674565b9160408701516122a19063ffffffff1690565b63ffffffff166122b090613674565b9360208801516122cc906cffffffffffffffffffffffffff1690565b6cffffffffffffffffffffffffff166122e490613674565b956122ee90613674565b966122f890613674565b610120989098015161230c9060ff16613674565b9860405180916020820161231f9161162e565b03601f1981018252612331908261027a565b61233a9061464e565b9b6040519e8f9e8f602001612373906009907f7b226e616d65223a22000000000000000000000000000000000000000000000081520190565b61237c9161162e565b7f222c202270726f647563744e616d65223a20220000000000000000000000000081526013016123ab9161162e565b7f222c202263617465676f72794e616d65223a202200000000000000000000000081526014016123da9161162e565b7f222c2022746f6b656e4964223a200000000000000000000000000000000000008152600e016124099161162e565b7f2c2022757063223a20000000000000000000000000000000000000000000000081526009016124389161162e565b7f2c202263617465676f7279223a200000000000000000000000000000000000008152600e016124679161162e565b7f2c2022737570706c79223a2000000000000000000000000000000000000000008152600c016124969161162e565b7f2c202272656d61696e696e67223a2000000000000000000000000000000000008152600f016124c59161162e565b7f2c20227072696365223a200000000000000000000000000000000000000000008152600b016124f49161162e565b7f2c2022646563696d616c73223a200000000000000000000000000000000000008152600e016125239161162e565b7f2c202263757272656e6379223a200000000000000000000000000000000000008152600e016125529161162e565b7f2c2022646973636f756e74223a200000000000000000000000000000000000008152600e016125819161162e565b61016160f51b81526002016125959161162e565b61259e9161162e565b7f2c20226465736372697074696f6e223a2241207069656365206f662042616e6e81527f792052657461696c2e222c2265787465726e616c5f75726c223a22687474707360208201527f3a2f2f72657461696c2e62616e6e792e6574682e7375636b73222c22696d616760408201527f65223a22646174613a696d6167652f7376672b786d6c3b6261736536342c00006060820152607e0161263f9161162e565b61227d60f01b815260020103601f198101825261265c908261027a565b6126659061464e565b61045690612048565b905061269391945060603d60601161269c575b61268b818361027a565b810190611ee1565b5093905f6121a0565b503d612681565b611ec7565b9350945050506126be601092945162ffffff1690565b1611156127b657604051636c0360eb60e01b81525f816004816001600160a01b0386165afa9283156126a357612747936020925f91612794575b50925b612713612707826140eb565b6001600160a01b031690565b604051630c8df17160e41b81526001600160a01b039092166004830152602482019290925293849190829081906044820190565b03915afa9081156126a357610456925f92612763575b50614152565b61278691925060203d60201161278d575b61277e818361027a565b810190611ed2565b905f61275d565b503d612774565b6127b091503d805f833e6127a8818361027a565b810190611ea1565b5f6126f8565b6020612747926127c461029c565b926126fb565b6127f26127d78683613107565b946127ec6121566127e788613674565b611cc1565b90611d20565b95612164565b916128189060018761280d8a5162ffffff1690565b160361281e57613fd8565b9161211e565b61282f9061282a613e99565b6118c6565b613fd8565b91909293966128438883612e1d565b9661284e8984611518565b979099612859611835565b9a5f9b5b8a518d10156128b2576128839061287d6128778f8e6114f6565b51613674565b906118c6565b9b61288e8b516118fb565b811061289e575b6001019b61285d565b9b6128aa600191611909565b9c9050612895565b6128c7919395979a989b929496999c50611941565b995f9b5b88518d101561293c576129346001918c8f6129296121078f8f61291161290561291e936128fe61292e98612919956114f6565b5190613552565b9687015162ffffff1690565b62ffffff1690565b613b28565b935163ffffffff1690565b613d17565b9161197a565b9c019b6128cb565b939894995094999196509499508515155f146129f2579061298661292961210761297c61297561298c9661296f8c613674565b90611a96565b9987613552565b5163ffffffff1690565b90611b0d565b955b6129ba866129ad846001600160a01b03165f52600260205260405f2090565b905f5260205260405f2090565b544281116129c9575b50612164565b94966129e56121566129eb93996129df89613674565b90611bac565b90611c23565b955f6129c3565b94506129fd90611a1c565b9561298e565b5050506104566117ea565b6001600160a01b0316805f52600e60205260405f20825f5260205260405f2054918215918215612a47575b5050612a425790565b505f90565b9091505f52600b60205260405f20825f5260205260405f205414155f80612a39565b916060816001600160a01b039260209497969760408752816040880152838701375f828287010152601f80199101168401019416910152565b6009545f9291612ab1826101b8565b91600190818116908115612b1b5750600114612acc57505050565b909192935060095f527f6e1540171b6c0c960b71a7020d9f60077f6af931a8bbf590da0223dacf75c7af905f915b848310612b08575050500190565b8181602092548587015201920191612afa565b60ff191683525050811515909102019150565b906040519182602091612b49815180928580860191016103ff565b6008545f918301612b59826101b8565b91600190818116908115612be25750600114612b86575b5050506102da925003601f19810184528361027a565b94925060085f527ff3f7a9fe364faab93b216da50a3214154f22a0a2b415b23a84c8169e8b636ee3945f905b838210612bca5750506102da945001015f8080612b70565b86548284018601529586019588955090840190612bb2565b9150506102da95935060ff9291921916838301528015150201015f8080612b70565b906040519182602091612c1f815180928580860191016103ff565b6005545f918301612c2f826101b8565b91600190818116908115612be25750600114612c5b575050506102da925003601f19810184528361027a565b94925060055f527f036b6384b5eca791c62761152d0c79bb0604c104a5fb6f4eb0703f3154bb3db0945f905b838210612c9f5750506102da945001015f8080612b70565b86548284018601529586019588955090840190612c87565b906040519182602091612cd2815180928580860191016103ff565b6007545f918301612ce2826101b8565b91600190818116908115612be25750600114612d0e575050506102da925003601f19810184528361027a565b94925060075f527fa66cc928b5edb82af9bd49922954155ab7b0942694bea4ce44661d9a8736c688945f905b838210612d525750506102da945001015f8080612b70565b86548284018601529586019588955090840190612d3a565b906040519182602091612d85815180928580860191016103ff565b6006545f918301612d95826101b8565b91600190818116908115612be25750600114612dc1575050506102da925003601f19810184528361027a565b94925060065f527ff652222313e28459528d920b65115c16c04f3efc82aaedc97be59f3f377c0d3f945f905b838210612e055750506102da945001015f8080612b70565b86548284018601529586019588955090840190612ded565b612e278282613552565b9163ffffffff80612e3c855163ffffffff1690565b1615612f435760609162ffffff612e5a61010087015162ffffff1690565b16612f0e57936001612eb99392612ea461291e612e7a6104569989611518565b969080151580612f07575b612ede575b5061287d612e9f612107885163ffffffff1690565b614775565b1603612ed557612eb390612c04565b9261494d565b8051612ec6575b50613fd8565b612ecf916118c6565b5f612ec0565b612eb390612b2e565b612f019150612ef661210761297c612efc938d613552565b8a613d6e565b61186e565b5f612e8a565b5085612e85565b505050612f25612107612f2b935163ffffffff1690565b90613d6e565b8051612f3a57506104566117ea565b61045690613fd8565b505050506104566117ea565b9092612f5b8483613552565b9363ffffffff9081612f71875163ffffffff1690565b16156130625760609062ffffff612f8f61010089015162ffffff1690565b166130485791612fd161291e600193612fac6104569a9689611518565b978115159081613040575b50613022575061287d612e9f612107885163ffffffff1690565b160361301357612fe090612c04565b925b612fee575b5050613fd8565b612ff79161494d565b8051613004575b80612fe7565b61300d916118c6565b5f612ffe565b61301c90612b2e565b92612fe2565b612f01915061303a61210761297c612efc938c613552565b89613d6e565b90505f612fb7565b505050509050612f25612107612f2b935163ffffffff1690565b5050505050506104566117ea565b91613079614736565b5f925b80518410156131015761308f84826114f6565b519361309b81856114f6565b51855f5260049560208781526040805f20546130f257907fb10eb6fc7557a7109693cb8f3fac48d44328de56c0368ee4cac539b424d2cad991600196979899845f52825284815f205551338152a30192919061307c565b51632165e0ab60e01b81528890fd5b50915050565b6001600160a01b0381165f52600f60205260405f20825f5260205260405f205490811561318f57613149906001600160a01b03165f52600a60205260405f2090565b815f5260205261315b60405f20611450565b915f5b8351811015613187578161317282866114f6565b51146131805760010161315e565b5050905090565b505050505f90565b5050505f90565b9161319f614736565b5f925b8051841015613101576131b584826114f6565b51936131c181856114f6565b5194805f52602095600c87526040805f20825167ffffffffffffffff8111610221576131f18161171584546101b8565b89601f821160011461326f5750917f9dedd219289ed514faff576c477c66bd097aef59a236e3b8ebcf0d0070cb4e969391613249846132589560019a9b9c9d5f9161326457508160011b915f199060031b1c19161790565b90555b519182913390836117c3565b0390a2019291906131a2565b90508501515f610d65565b99601f198216613282845f5260205f2090565b9b5f905b8282106132eb57505091600198999a9b7f9dedd219289ed514faff576c477c66bd097aef59a236e3b8ebcf0d0070cb4e96969492826132589795106132d3575b5050881b8801905561324c565b8501515f1960f88460031b161c191690555f806132c6565b80600181939f868b015181550194019d01909c929c613286565b51906102da8261056c565b9081602091031261048c57516104568161056c565b6040516331a9108f60e11b815260048101929092526001600160a01b03906020908390602490829085165afa9182156126a3575f92613385575b5080613369615870565b1691160361337357565b6040516341eb334360e11b8152600490fd5b6133a891925060203d6020116133af575b6133a0818361027a565b810190613310565b905f61335f565b503d613396565b519063ffffffff8216820361048c57565b51906cffffffffffffffffffffffffff8216820361048c57565b519061ffff8216820361048c57565b519062ffffff8216820361048c57565b519060ff8216820361048c57565b51906102da82610ef6565b60208183031261048c57805167ffffffffffffffff9182821161048c57016101e08184031261048c5761344a610880565b92613454826133b6565b8452613462602083016133c7565b6020850152613473604083016133b6565b6040850152613484606083016133b6565b6060850152613495608083016133c7565b60808501526134a660a083016133e1565b60a08501526134b760c08301613305565b60c085015260e082015160e08501526101006134d48184016133f0565b908501526101206134e6818401613400565b908501526101406134f881840161340e565b9085015261016061350a81840161340e565b9085015261018061351c81840161340e565b908501526101a061352e81840161340e565b908501526101c0928383015190811161048c5761354b9201611e5f565b9082015290565b613605915f9160606101c060405161356981610204565b85815285602082015285604082015285838201528560808201528560a08201528560c08201528560e08201528561010082015285610120820152856101408201528561016082015285610180820152856101a082015201526135cd612707826140eb565b9060405180958194829363c44a8e6d60e01b8452600484016040905f9294936001600160a01b03606083019616825260208201520152565b03915afa9081156126a3575f9161361a575090565b61045691503d805f833e61362e818361027a565b810190613419565b60405161364281610226565b5f8152905f368137565b906136568261124f565b613663604051918261027a565b82815280926114c6601f199161124f565b805f917a184f03e93ff9f4daa797ed6e38ed64bf6a1f010000000000000000808210156137b5575b506d04ee2d6d415b85acef8100000000808310156137a6575b50662386f26fc1000080831015613797575b506305f5e10080831015613788575b5061271080831015613779575b506064821015613769575b600a8092101561375f575b60019081602161370b6001870161364c565b95860101905b61371d575b5050505090565b5f19019083907f30313233343536373839616263646566000000000000000000000000000000008282061a83530491821561375a57919082613711565b613716565b91600101916136f9565b91906064600291049101916136ee565b6004919392049101915f6136e3565b6008919392049101915f6136d6565b6010919392049101915f6136c7565b6020919392049101915f6136b5565b60409350810491505f61369c565b604051906137d082610242565b600c82527f5370656369616c20426f647900000000000000000000000000000000000000006020830152565b6040519061380982610242565b600c82527f5370656369616c204865616400000000000000000000000000000000000000006020830152565b6040519061384282610242565b600c82527f5370656369616c204c65677300000000000000000000000000000000000000006020830152565b6040519061387b82610242565b600c82527f5370656369616c205375697400000000000000000000000000000000000000006020830152565b604051906138b482610242565b6004825263119a5cdd60e21b6020830152565b604051906138d482610242565b600b82527f5375697420626f74746f6d0000000000000000000000000000000000000000006020830152565b6040519061390d82610242565b600882527f5375697420746f700000000000000000000000000000000000000000000000006020830152565b6040519061394682610242565b600482526314dd5a5d60e21b6020830152565b6040519061396682610242565b60048252631219585960e21b6020830152565b6040519061398682610242565b600882527f4865616420746f700000000000000000000000000000000000000000000000006020830152565b604051906139bf82610242565b600582527f4d6f7574680000000000000000000000000000000000000000000000000000006020830152565b604051906139f882610242565b600782527f476c6173736573000000000000000000000000000000000000000000000000006020830152565b60405190613a3182610242565b600882527f4e65636b6c6163650000000000000000000000000000000000000000000000006020830152565b60405190613a6a82610242565b60048252634c65677360e01b6020830152565b60405190613a8a82610242565b600882527f4261636b736964650000000000000000000000000000000000000000000000006020830152565b60405190613ac382610242565b600a82527f4261636b67726f756e64000000000000000000000000000000000000000000006020830152565b60405190613afc82610242565b600a82527f42616e6e7920626f6479000000000000000000000000000000000000000000006020830152565b80613b365750610456613aef565b60018103613b475750610456613ab6565b60028103613b585750610456613a7d565b60078103613b695750610456613a5d565b60038103613b7a5750610456613a24565b60058103613b8b57506104566139eb565b60068103613b9c57506104566139b2565b600b8103613bad5750610456613979565b60048103613bbe5750610456613959565b60088103613bcf5750610456613939565b600a8103613be05750610456613900565b60098103613bf157506104566138c7565b600c8103613c0257506104566138a7565b600d8103613c13575061045661386e565b600e8103613c245750610456613835565b600f8103613c3557506104566137fc565b601014613c44576104566117ea565b6104566137c3565b60405190613c5982610242565b600882527f4f726967696e616c0000000000000000000000000000000000000000000000006020830152565b60405190613c9282610242565b600682527f4f72616e676500000000000000000000000000000000000000000000000000006020830152565b60405190613ccb82610242565b600482526350696e6b60e01b6020830152565b60405190613ceb82610242565b600582527f416c69656e0000000000000000000000000000000000000000000000000000006020830152565b60018103613d285750610456613cde565b60028103613d395750610456613cbe565b60038103613d4a5750610456613c85565b60048103613d5b5750610456613c4c565b5f52600c60205261045660405f2061035f565b90805f52602091600d8352613d8560405f2061035f565b8051613e925750613dd791816001600160a01b03613da386946140eb565b1690604051809581948293632f54648f60e21b845260048401602090939291936001600160a01b0360408201951681520152565b03915afa80156126a357613e3f92613e04604992610456945f91613e75575b50613dff61029c565b614152565b60405194827f3c696d61676520687265663d220000000000000000000000000000000000000087948501528251928391602d860191016103ff565b81017f222077696474683d2234303022206865696768743d22343030222f3e00000000602d82015203602981018452018261027a565b613e8c9150833d851161278d5761277e818361027a565b5f613df6565b9250505090565b603b610456613f28610a056008613faf6040516003613f9f81613f8f81613f7f6044602088017f7b66696c6c3a6e6f6e653b7d00000000000000000000000000000000000000008152600c8952613eef89610242565b6040519e8f9d8e7f3c7374796c653e2e6f7b66696c6c3a233830383038303b7d2e6231000000000060208201528b5192839101846103ff565b8d016217311960e91b603b820152895190613f4782603e8301856103ff565b01622e623360e81b603e820152613f658a51809360418401906103ff565b01613f7860418201620b988d60ea1b9052565b018761162e565b622e613160e81b8152018561162e565b6217309960e91b8152018361162e565b622e613360e81b8152019061162e565b7f3c2f7374796c653e000000000000000000000000000000000000000000000000815201612aa2565b906102da60bb60405180947f3c7376672077696474683d2234303022206865696768743d223430302220766960208301527f6577426f783d223020302034303020343030222066696c6c3d2277686974652260408301527f20786d6c6e733d22687474703a2f2f7777772e77332e6f72672f323030302f7360608301527f7667223e3c7374796c653e2e6f7b66696c6c3a233035303530353b7d2e777b6660808301527f696c6c3a236639663966393b7d3c2f7374796c653e000000000000000000000060a08301526140b581518092602060b5860191016103ff565b81017f3c2f7376673e000000000000000000000000000000000000000000000000000060b582015203609b81018552018361027a565b60206001600160a01b039160046040518094819363507f146560e01b8352165afa9081156126a3575f9161411d575090565b90506020813d60201161414a575b816141386020938361027a565b8101031261048c57516104568161056c565b3d915061412b565b9061045690614180604051602092609160f51b8483015260228201526022815261417b8161025e565b61523f565b92604051938161419986935180928680870191016103ff565b82016141ad825180938680850191016103ff565b0103808452018261027a565b906102da6021604051846141d78296518092602080860191016103ff565b8101600160fd1b602082015203600181018552018361027a565b604051906141fe82610242565b600a82527f2072656d61696e696e67000000000000000000000000000000000000000000006020830152565b906102da9294936021926142936040519788946020936142528151809287808b0191016103ff565b8601614266825180938780850191016103ff565b01602f60f81b8482015261428282518093868a850191016103ff565b0191835193849187850191016103ff565b0103600181018552018361027a565b906102da929493602d926143216040519788946020936142ca8151809287808b0191016103ff565b86017f2028534f4c44204f555429200000000000000000000000000000000000000000858201526143048251809387602c850191016103ff565b01602f60f81b602c82015261428282518093868a850191016103ff565b0103600d81018552018361027a565b6102da9161429394936021926040519687936020926143578151809286808a0191016103ff565b850161436b825180938680850191016103ff565b0191602f60f81b81840152835193849187850191016103ff565b906102da6022604051846143a38296518092602080860191016103ff565b81016101d160f51b602082015203600281018552018361027a565b60216102da9193929360405194816143e08793518092602080870191016103ff565b82016143f582518093602080850191016103ff565b01600160fd1b602082015203600181018552018361027a565b60256102da9193929360405194816144308793518092602080870191016103ff565b82017f5550432023000000000000000000000000000000000000000000000000000000602082015261446b82518093602087850191016103ff565b0103600581018552018361027a565b906144e861045692633b9aca006144a361449e612929612107875163ffffffff1690565b6141b9565b91066144ad6141f1565b811561453f5750906144c16144e392613674565b6144dd6144d8612107606088015163ffffffff1690565b613674565b91614330565b614385565b9061450061291961291161010084015162ffffff1690565b8051614522575b506144d861210761451c925163ffffffff1690565b9061440e565b6121076145366144d89261451c94956143be565b93925050614507565b9050604084019163ffffffff614559845163ffffffff1690565b168061459457506145776144d86121076144e3955163ffffffff1690565b61458e6144d8612107606089015163ffffffff1690565b916142a2565b6144e393506145a290613674565b6145b96144d8612107606089015163ffffffff1690565b9161422a565b604051906145cc8261025e565b604082527f6768696a6b6c6d6e6f707172737475767778797a303132333435363738392b2f6040837f4142434445464748494a4b4c4d4e4f505152535455565758595a61626364656660208201520152565b908160021b917f3fffffffffffffffffffffffffffffffffffffffffffffffffffffffffffffff8116036106ba57565b80511561472d5761465d6145bf565b61467961467461466d8451611419565b6003900490565b61461e565b9161468b61468684611427565b61364c565b92835280815182019060208501935b8282106146db575050506003905106806001146146ca576002146146bc575090565b603d60f81b5f199091015290565b50613d3d60f01b6001199091015290565b9091936004906003809401938451600190603f9082828260121c16880101518553828282600c1c16880101518386015382828260061c168801015160028601531685010151908201530193919061469a565b506104566117ea565b6001600160a01b03805f54168161474b615870565b16036147545750565b60249061475f615870565b60405163118cdaa760e01b815291166004820152fd5b61477e90615744565b93604096959693919351968796602088017f3c7374796c653e2e62317b66696c6c3a2300000000000000000000000000000090528051908160318a0191602001916147c8926103ff565b8701603181017f3b7d2e62327b66696c6c3a230000000000000000000000000000000000000000905281519182603d83019160200191614807926103ff565b01603d81017f3b7d2e62337b66696c6c3a230000000000000000000000000000000000000000905281519182604983019160200191614845926103ff565b0160498101614873907f3b7d2e62347b66696c6c3a2300000000000000000000000000000000000000009052565b60550161487f9161162e565b7f3b7d2e61317b66696c6c3a2300000000000000000000000000000000000000008152600c016148ae9161162e565b7f3b7d2e61327b66696c6c3a2300000000000000000000000000000000000000008152600c016148dd9161162e565b7f3b7d2e61337b66696c6c3a2300000000000000000000000000000000000000008152600c0161490c9161162e565b7f3b7d3c2f7374796c653e000000000000000000000000000000000000000000008152600a0161493b90612aa2565b03601f1981018252610456908261027a565b919060608151935f925f9383915f5b61496589611435565b811015614abe5788811015614ab25761497e81836114f6565b519361498a8587613552565b936149b06121076149a561291161010089015162ffffff1690565b965163ffffffff1690565b915b600386811492908315614a83575050506001956149cf8389613d6e565b995b6006878103614a4f575050600a6001965b1180614a45575b614a2b575b15159081614a22575b50614a0a575b506001019592919561495c565b6001919661287d614a1b9288613d6e565b95906149fd565b9050155f6149f7565b98614a3691986118c6565b96614a3f6117ea565b986149ee565b50895115156149e9565b8791971180614a7b575b614a66575b600a906149e2565b955097614a7290612d6a565b97600195614a5e565b508615614a59565b879b9198929b1180614aaa575b156149d157965097614aa190612cb7565b976001966149d1565b508715614a90565b5f9360119385916149b2565b5050505050925050565b9190614ae9816129ad856001600160a01b03165f52600b60205260405f2090565b54614af48185612a0e565b818414801590614cf6575b614b0b575b5050505050565b8214614cdd575b508115614cb6576040516331a9108f60e11b808252600482018490526001600160a01b0392918584169060208082602481865afa80156126a35786925f91614c99575b5082614b5f615870565b911696168614159384614c21575b50505050614c0f5763ffffffff614b8761297c8587613552565b1615614bfd5782614bad826129ad876001600160a01b03165f52600b60205260405f2090565b55614bcd836129ad866001600160a01b03165f52600e60205260405f2090565b553003614be2575b50505b5f80808080614b04565b614bf6913090614bf0615870565b906158c9565b5f80614bd5565b60405163c3095f8760e01b8152600490fd5b60405163d03702f960e01b8152600490fd5b819293945090614c5891614c33615870565b95614c3e8a8c612a0e565b916040518095819482938352600483019190602083019252565b03915afa9081156126a35783925f92614c7c575b505016911614155f808080614b6d565b614c929250803d106133af576133a0818361027a565b5f80614c6c565b614cb09150823d84116133af576133a0818361027a565b5f614b55565b614cd791506129ad5f936001600160a01b03165f52600b60205260405f2090565b55614bd8565b614cf090614ce9615870565b30866158c9565b5f614b12565b5082811415614aff565b81519167ffffffffffffffff831161022157680100000000000000008311610221578154838355808410614d5f575b506020809101915f5260205f20905f5b848110614d4d575050505050565b83518382015592810192600101614d3f565b614d7590835f528460205f209182019101611645565b5f614d2f565b909291925f935f915f92614dac614da7836129ad886001600160a01b03165f52600a60205260405f2090565b611450565b955f945f945f9089516151d9575b90969299935f999899969296975b825189101561514e579a8a9b614de18a859d9c9d6114f6565b516040516331a9108f60e11b8152600481018290529d9097906001600160a01b03168e6024815a93602094fa9d8e156126a3575f9e61512d575b508d6001600160a01b0380614e2e615870565b921691161415806150a2575b61509057614e5c612911610100614e528f8c90613552565b015162ffffff1690565b9960028b108015615086575b615074578b15159081615069575b506150575760048a03614fba57506001949095919293955b8981111580614fb1575b15614f2c57508a949392918188614ebc93141580614f1a575b614f01575b5061150a565b94858c805182105f14614ef457610100614e52614edf614ee794612911946114f6565b518099613552565b905b959192939490614e8e565b505093505f935f90614ee9565b614f1490614f0d615870565b30896158c9565b5f614eb6565b5089614f268289613107565b14614eb1565b93966001929a959d999199969396898d81614f478583613107565b03614f64575b50505050930197939a949091999899969296614dc8565b836129ad614f83926001600160a01b03165f52600f60205260405f2090565b556001600160a01b0330911603614f9d575b80898d614f4d565b614fab90308d614bf0615870565b5f614f95565b50801515614e98565b939260088a03614fd35750600192959192939490614e8e565b9260058a14801561504d575b8015615043575b8061503c575b1561500357604051639b8fdcd160e01b8152600490fd5b600a8a148015615032575b8061502b575b15614ee9576040516306f7588760e01b8152600490fd5b5083615014565b5060098a1461500e565b5084614fec565b50600b8a14614fe6565b5060068a14614fdf565b604051633869abd960e21b8152600490fd5b90508a11155f614e76565b60405163b0ee46ab60e01b8152600490fd5b5060108b11614e68565b60405163032cac0360e01b8152600490fd5b508b6001600160a01b0360206150e56150b9615870565b936150c48d82613107565b6040519485809481936331a9108f60e11b8352600483019190602083019252565b0392165afa9081156126a3576001600160a01b039182915f9161510e575b501691161415614e3a565b615127915060203d6020116133af576133a0818361027a565b5f615103565b615147919e5060203d6020116133af576133a0818361027a565b9c5f614e1b565b5050979550915091949250805b61518a575050506102da92916129ad615185926001600160a01b03165f52600a60205260405f2090565b614d00565b90818561519a6151a59487613107565b146151c6575061150a565b81518110156151bf576151b881836114f6565b518061515b565b5f8061515b565b614f14906151d2615870565b30876158c9565b9550506151e5886114e4565b51946151fa612911610100614e52898c613552565b90614dba565b604051906105e0820182811067ffffffffffffffff82111761022157604052602e82526105c0366020840137565b9081518110156114f1570160200190565b908151156153715761524f615200565b915f61525a846114e4565b5260019080515f915b8183106152885750505061527e61528391610456939461592d565b61596f565b6159b4565b9091936152d06152ca6152c461529e888661522e565b517fff000000000000000000000000000000000000000000000000000000000000001690565b60f81c90565b60ff1690565b905f915b60ff908882881685101561533457600192916153096153036152ca6152fc8961530f966114f6565b5160ff1690565b60081b90565b90611443565b61532b603a9283830616615323878d6114f6565b9060ff169052565b049201916152d4565b509196925050805b61534b57506001019190615263565b9360ff6001603a9261536783858a06166153238584168d6114f6565b011694048061533c565b9050610456613636565b6040519061538882610242565b600682527f66666539303000000000000000000000000000000000000000000000000000006020830152565b604051906153c182610242565b600682527f66666337303000000000000000000000000000000000000000000000000000006020830152565b604051906153fa82610242565b600682527f66336136303300000000000000000000000000000000000000000000000000006020830152565b6040519061543382610242565b600682527f39363561316100000000000000000000000000000000000000000000000000006020830152565b6040519061546c82610242565b600682527f66663763303200000000000000000000000000000000000000000000000000006020830152565b604051906154a582610242565b600682527f66643336303000000000000000000000000000000000000000000000000000006020830152565b604051906154de82610242565b600682527f63333265306400000000000000000000000000000000000000000000000000006020830152565b6040519061551782610242565b600682527f66666438633500000000000000000000000000000000000000000000000000006020830152565b6040519061555082610242565b600682527f66663936613900000000000000000000000000000000000000000000000000006020830152565b6040519061558982610242565b600682527f66653538386200000000000000000000000000000000000000000000000000006020830152565b604051906155c282610242565b600682527f63393266343500000000000000000000000000000000000000000000000000006020830152565b604051906155fb82610242565b600682527f36376437353700000000000000000000000000000000000000000000000000006020830152565b6040519061563482610242565b600682527f33306132323000000000000000000000000000000000000000000000000000006020830152565b6040519061566d82610242565b600682527f32313761313500000000000000000000000000000000000000000000000000006020830152565b604051906156a682610242565b600682527f30393439306600000000000000000000000000000000000000000000000000006020830152565b604051906156df82610242565b600682527f65343833656600000000000000000000000000000000000000000000000000006020830152565b6040519061571882610242565b600682527f64633266656600000000000000000000000000000000000000000000000000006020830152565b6001810361578b57506157556155ee565b9061575e615627565b90615767615660565b90615770615699565b906157796156d2565b9061578261570b565b9061045661570b565b600281036157d2575061579c61550a565b906157a5615543565b906157ae61557c565b906157b76155b5565b906157c061550a565b906157c9615543565b9061045661557c565b6003810361581957506157e36153ed565b906157ec61545f565b906157f5615498565b906157fe6154d1565b906158076153ed565b9061581061545f565b90610456615498565b60041461583257604051639a7b332360e01b8152600490fd5b61583a61537b565b906158436153b4565b9061584c6153ed565b90615855615426565b9061585e61537b565b906158676153b4565b906104566153ed565b6001600160a01b037f0000000000000000000000000000000000000000000000000000000000000000163314806158be575b156158ba5760131936013681116106ba573560601c90565b3390565b5060143610156158a2565b909291926001600160a01b0380921690813b1561048c575f6064928195856040519889978896632142170760e11b885216600487015216602485015260448401525af180156126a3576159195750565b67ffffffffffffffff811161022157604052565b9060ff8091169061593d8261149e565b925f5b83811061594e575050505090565b808361595c600193856114f6565b511661596882886114f6565b5201615940565b90815161597b8161149e565b905f5b81811061598c575090925050565b60019060ff6159a15f198389510301886114f6565b51166159ad82866114f6565b520161597e565b80516159bf8161124f565b9160406159cf604051948561027a565b8284526159db8361124f565b60209190601f190136868401375f5b8481106159f957505050505090565b6001908251615a078161025e565b603a81527f31323334353637383941424344454647484a4b4c4d4e50515253545556575859858201527f5a6162636465666768696a6b6d6e6f707172737475767778797a000000000000848201527fff0000000000000000000000000000000000000000000000000000000000000090615a8f9060ff615a87858a6114f6565b51169061522e565b51165f1a615a9d828961522e565b53016159ea56fea2646970667358221220ebd28430e1a83bf222a3c7ad1dfec809882c3a096f3e618468d16f9f72a62f7664736f6c63430008170033",
	"deployedBytecode": "0x60806040526004361015610011575f80fd5b5f3560e01c806257bfdd146101b357806305b2ae1b146101ae578063150b7a02146101a9578063187be308146101a457806318ab522d1461019f5780632150a1381461019a5780632580833d1461019557806331a290ac14610190578063572b6c051461018b57806359a81d91146101865780635e703e71146101815780636aff31dd1461017c578063715018a61461017757806379a2696e146101725780637da0a8771461016d578063875e4bea146101685780638da5cb5b14610163578063a0122c091461015e578063a22d0dd514610159578063b03a3eab14610154578063b1fa9e7b1461014f578063b3fa27831461014a578063c06e7bc714610145578063c122804614610140578063d756227e1461013b5763f2fde38b14610136575f80fd5b611371565b6112a1565b611207565b6110b9565b611014565b610fe9565b610f45565b610f00565b610e64565b610e3f565b610cd2565b610c8f565b610c5c565b610bf8565b610bce565b610ba2565b610afd565b610aa7565b61093f565b6107db565b610736565b6106bf565b610629565b6105ab565b610490565b610459565b90600182811c921680156101e6575b60208310146101d257565b634e487b7160e01b5f52602260045260245ffd5b91607f16916101c7565b634e487b7160e01b5f52604160045260245ffd5b6101e0810190811067ffffffffffffffff82111761022157604052565b6101f0565b6020810190811067ffffffffffffffff82111761022157604052565b6040810190811067ffffffffffffffff82111761022157604052565b6060810190811067ffffffffffffffff82111761022157604052565b90601f8019910116810190811067ffffffffffffffff82111761022157604052565b604051905f82600354916102af836101b8565b8083529260209060019081811690811561033b57506001146102dc575b50506102da9250038361027a565b565b91509260035f527fc2575a0e9e593c00f959f8c92f12db2869c3395a3b0502d05e2516446f71f85b935f925b82841061032357506102da9450505081016020015f806102cc565b85548885018301529485019487945092810192610308565b915050602092506102da94915060ff191682840152151560051b8201015f806102cc565b9060405191825f8254610371816101b8565b908184526020946001916001811690815f146103dd575060011461039f575b5050506102da9250038361027a565b5f90815285812095935091905b8183106103c55750506102da93508201015f8080610390565b855488840185015294850194879450918301916103ac565b925050506102da94925060ff191682840152151560051b8201015f8080610390565b5f5b8381106104105750505f910152565b8181015183820152602001610401565b90602091610439815180928185528580860191016103ff565b601f01601f1916010190565b906020610456928181520190610420565b90565b3461048c575f36600319011261048c5761048861047461029c565b604051918291602083526020830190610420565b0390f35b5f80fd5b3461048c575f36600319011261048c576040515f6008546104b0816101b8565b8084529060209060019081811690811561054257506001146104e9575b610488856104dd8187038261027a565b60405191829182610445565b60085f90815293507ff3f7a9fe364faab93b216da50a3214154f22a0a2b415b23a84c8169e8b636ee35b83851061052f575050505081016020016104dd826104886104cd565b8054868601840152938201938101610513565b869550610488969350602092506104dd94915060ff191682840152151560051b82010192936104cd565b6001600160a01b0381160361048c57565b9181601f8401121561048c5782359167ffffffffffffffff831161048c576020838186019501011161048c57565b3461048c57608036600319011261048c576004356105c88161056c565b6105d360243561056c565b60643567ffffffffffffffff811161048c576105f390369060040161057d565b50506001600160a01b033091160361061757604051630a85bd0160e11b8152602090f35b604051633b2c6aa160e21b8152600490fd5b3461048c57604036600319011261048c576004356106468161056c565b6001600160a01b036024359161065c8382613325565b16805f52600260205260405f20825f5260205260405f20549162093a804201928342116106ba5783106106a8576106a5915f52600260205260405f20905f5260205260405f2090565b55005b604051631057c89560e21b8152600490fd5b611405565b3461048c57604036600319011261048c576106e86004356106df8161056c565b60243590611518565b90604051918291604083019083526020906040602085015282518091526020606085019301915f5b82811061071f57505050500390f35b835185528695509381019392810192600101610710565b3461048c575f36600319011261048c576040515f600554610756816101b8565b80845290602090600190818116908115610542575060011461078257610488856104dd8187038261027a565b60055f90815293507f036b6384b5eca791c62761152d0c79bb0604c104a5fb6f4eb0703f3154bb3db05b8385106107c8575050505081016020016104dd826104886104cd565b80548686018401529382019381016107ac565b3461048c575f36600319011261048c576040515f6006546107fb816101b8565b80845290602090600190818116908115610542575060011461082757610488856104dd8187038261027a565b60065f90815293507ff652222313e28459528d920b65115c16c04f3efc82aaedc97be59f3f377c0d3f5b83851061086d575050505081016020016104dd826104886104cd565b8054868601840152938201938101610851565b604051906102da82610204565b67ffffffffffffffff81116102215760051b60200190565b92916108b08261088d565b916108be604051938461027a565b829481845260208094019160051b810192831161048c57905b8282106108e45750505050565b813581529083019083016108d7565b9080601f8301121561048c57816020610456933591016108a5565b9181601f8401121561048c5782359167ffffffffffffffff831161048c576020808501948460051b01011161048c57565b3461048c5760408060031936011261048c5760049067ffffffffffffffff823581811161048c5761097390369085016108f3565b9060243590811161048c5761098b903690850161090e565b9290915f5b8151811015610aa5576109a381836114f6565b516109b96109b28388886115e2565b369161126b565b6109d36109ce835f52600d60205260405f2090565b611624565b610a95576109e9825f52600460205260405f2090565b548015610a855785516020810190610a1381610a05848761162e565b03601f19810183528261027a565b51902003610a7557907faeb631726b45aa3f6b09da79f7af03a9784614901f61a967ed84d63c37b7edc7610a6c83610a5f60019695610a5a865f52600d60205260405f2090565b6116f3565b87519182913390836117c3565b0390a201610990565b845163d8e55daf60e01b81528890fd5b85516338d87d3960e01b81528990fd5b845163444244f560e01b81528890fd5b005b3461048c57602036600319011261048c576020600435610ac68161056c565b6001600160a01b039060405191807f0000000000000000000000008a5ba591ed2bed5691a378c65611ed492500f887169116148152f35b3461048c575f36600319011261048c576040515f600954610b1d816101b8565b808452906020906001908181169081156105425750600114610b4957610488856104dd8187038261027a565b60095f90815293507f6e1540171b6c0c960b71a7020d9f60077f6af931a8bbf590da0223dacf75c7af5b838510610b8f575050505081016020016104dd826104886104cd565b8054868601840152938201938101610b73565b3461048c57604036600319011261048c57610488610474600435610bc58161056c565b6024359061209c565b3461048c57602036600319011261048c576004355f526004602052602060405f2054604051908152f35b3461048c575f36600319011261048c57610c10614736565b5f6001600160a01b03815473ffffffffffffffffffffffffffffffffffffffff1981168355167f8be0079c531659141344cd1fd0a4f28419497f9722a3daafe3b4186f6b6457e08280a3005b3461048c57604036600319011261048c576020610c87600435610c7e8161056c565b60243590612a0e565b604051908152f35b3461048c575f36600319011261048c5760206040516001600160a01b037f0000000000000000000000008a5ba591ed2bed5691a378c65611ed492500f887168152f35b3461048c5760208060031936011261048c5767ffffffffffffffff60043581811161048c57610d0590369060040161057d565b9091610d0f614736565b811161022157610d2981610d246003546101b8565b61165b565b5f92601f8211600114610d9d5750610d7881807f512c3c91736f50c57a0548c1d01ab02f24c420f002b8b20e2bfe63df9693cd3f955f91610d92575b508160011b915f199060031b1c19161790565b6003555b610d8d604051928392339184612a69565b0390a1005b90508401355f610d65565b60035f52601f198216937fc2575a0e9e593c00f959f8c92f12db2869c3395a3b0502d05e2516446f71f85b915f905b868210610e27575050827f512c3c91736f50c57a0548c1d01ab02f24c420f002b8b20e2bfe63df9693cd3f9510610e0e575b5050600181811b01600355610d7c565b8301355f19600384901b60f8161c191690555f80610dfe565b80600184958294958901358155019401920190610dcc565b3461048c575f36600319011261048c5760206001600160a01b035f5416604051908152f35b3461048c57604036600319011261048c57610eda600435610e848161056c565b610488610e9e610e976024358094613552565b809361447a565b91610ee8610ec563ffffffff610ebd62ffffff61010086015116613b28565b935116613d17565b91604051958695606087526060870190610420565b908582036020870152610420565b908382036040850152610420565b8015150361048c57565b3461048c57608036600319011261048c57610488610474600435610f238161056c565b604435610f2f81610ef6565b60643591610f3c83610ef6565b60243590612f4f565b3461048c57604036600319011261048c5767ffffffffffffffff60043581811161048c57610f779036906004016108f3565b9060243590811161048c573660238201121561048c578060040135610f9b8161088d565b91610fa9604051938461027a565b8183526020916024602085019160051b8301019136831161048c57602401905b828210610fda57610aa58587613070565b81358152908301908301610fc9565b3461048c57604036600319011261048c576020610c8760043561100b8161056c565b60243590613107565b3461048c575f36600319011261048c576040515f600754611034816101b8565b80845290602090600190818116908115610542575060011461106057610488856104dd8187038261027a565b60075f90815293507fa66cc928b5edb82af9bd49922954155ab7b0942694bea4ce44661d9a8736c6885b8385106110a6575050505081016020016104dd826104886104cd565b805486860184015293820193810161108a565b3461048c57608036600319011261048c576004356110d68161056c565b6044359060243560643567ffffffffffffffff811161048c576110fd90369060040161090e565b906002600154146111f55760026001556111178385613325565b6001600160a01b039182851692835f526002602052604096875f20865f52602052875f205442106111e45761114a615870565b97838151918083528201527f07ffffffffffffffffffffffffffffffffffffffffffffffffffffffffffffff841161048c57866111d5967f6a68946ba06488db8585d7c7637fa954b574035fe15720ea760125ef8601725883606086958a6111db9f996111ce9a8c60051b8093868601371660208301528101030190a48587614ac8565b36916108a5565b91614d7b565b610aa560018055565b8751632d2f65a360e11b8152600490fd5b604051633ee5aeb560e01b8152600490fd5b3461048c57604036600319011261048c576001600160a01b0360043561122c8161056c565b165f52600260205260405f206024355f52602052602060405f2054604051908152f35b67ffffffffffffffff811161022157601f01601f191660200190565b9291926112778261124f565b91611285604051938461027a565b82948184528183011161048c578281602093845f960137010152565b3461048c57604036600319011261048c5767ffffffffffffffff60043581811161048c576112d39036906004016108f3565b60249060243583811161048c573660238201121561048c578060040135926112fa8461088d565b93611308604051958661027a565b8085526020956024602087019260051b8501019336851161048c5760248101925b85841061133a57610aa58888613196565b833583811161048c5782013660438201121561048c5789916113668392369060448a820135910161126b565b815201930192611329565b3461048c57602036600319011261048c5760043561138e8161056c565b611396614736565b6001600160a01b038091169081156113ed575f548273ffffffffffffffffffffffffffffffffffffffff198216175f55167f8be0079c531659141344cd1fd0a4f28419497f9722a3daafe3b4186f6b6457e05f80a3005b604051631e4fbdf760e01b81525f6004820152602490fd5b634e487b7160e01b5f52601160045260245ffd5b90600282018092116106ba57565b90602082018092116106ba57565b90600182018092116106ba57565b919082018092116106ba57565b90604051918281549182825260209260208301915f5260205f20935f905b828210611484575050506102da9250038361027a565b85548452600195860195889550938101939091019061146e565b906114a88261088d565b6114b5604051918261027a565b82815280926114c6601f199161088d565b0190602036910137565b634e487b7160e01b5f52603260045260245ffd5b8051156114f15760200190565b6114d0565b80518210156114f15760209160051b010190565b5f1981146106ba5760010190565b9190915f926001600160a01b0382165f52600a60205260405f20815f5260205261154460405f20611450565b9361154f855161149e565b915f915f5b875181101561159d578061156a6001928a6114f6565b5184611576828a613107565b14611583575b5001611554565b61159661158f8761150a565b96886114f6565b525f61157c565b5095509050929190926115c1826001600160a01b03165f52600b60205260405f2090565b815f526020526115d660405f20548093612a0e565b146115de5750565b9250565b91908110156114f15760051b81013590601e198136030182121561048c57019081359167ffffffffffffffff831161048c57602001823603811361048c579190565b61045690546101b8565b90611641602092828151948592016103ff565b0190565b818110611650575050565b5f8155600101611645565b90601f8211611668575050565b6102da9160035f527fc2575a0e9e593c00f959f8c92f12db2869c3395a3b0502d05e2516446f71f85b906020601f840160051c830193106116b1575b601f0160051c0190611645565b90915081906116a4565b9190601f81116116ca57505050565b6102da925f5260205f20906020601f840160051c830193106116b157601f0160051c0190611645565b919091825167ffffffffffffffff81116102215761171b8161171584546101b8565b846116bb565b602080601f831160011461175c5750819061174d9394955f92611751575b50508160011b915f199060031b1c19161790565b9055565b015190505f80611739565b90601f19831695611770855f5260205f2090565b925f905b8882106117ab57505083600195969710611793575b505050811b019055565b01515f1960f88460031b161c191690555f8080611789565b80600185968294968601518155019501930190611774565b906001600160a01b036117e3602092959495604085526040850190610420565b9416910152565b604051906117f782610226565b5f8252565b6040519061180982610242565b600f82527f2261747472696275746573223a205b00000000000000000000000000000000006020830152565b6040519061184282610242565b600e82527f226f7574666974496473223a205b0000000000000000000000000000000000006020830152565b9060405191826060515f5b8181106118ad57509060206102da936118a182948401918383015f81528151948592016103ff565b0103808552018361027a565b6020919250806080015182828801015201908491611879565b60206102da9193929360405194816118e787935180928680870191016103ff565b82016118a1825180938680850191016103ff565b5f198101919082116106ba57565b906102da6021604051846119278296518092602080860191016103ff565b8101600b60fa1b602082015203600181018552018361027a565b906102da60226040518461195f8296518092602080860191016103ff565b810161174b60f21b602082015203600281018552018361027a565b6040906102da92949394825195869160209361199e815180928780880191016103ff565b83017f7b2274726169745f74797065223a202200000000000000000000000000000000858201526119d882518093876030850191016103ff565b016c111610113b30b63ab2911d101160991b6030820152611a028251809386603d850191016103ff565b0162089f4b60ea1b603d820152039081018552018361027a565b906102da604a60405184611a3a8296518092602080860191016103ff565b81017f7b2274726169745f74797065223a20224261636b67726f756e64222c2022766160208201527f6c7565223a2022227d2c00000000000000000000000000000000000000000000604082015203602a81018552018361027a565b60316102da919392936040519481611ab88793518092602080870191016103ff565b82017f226261636b67726f756e644964223a20000000000000000000000000000000006020820152611af48251809360206030850191016103ff565b01600b60fa1b603082015203601181018552018361027a565b604a6102da919392936040519481611b2f8793518092602080870191016103ff565b82017f7b2274726169745f74797065223a20224261636b67726f756e64222c2022766160208201527f6c7565223a2022000000000000000000000000000000000000000000000000006040820152611b918251809360206047850191016103ff565b0162089f4b60ea1b604782015203602a81018552018361027a565b60376102da919392936040519481611bce8793518092602080870191016103ff565b82017f226368616e6765734c6f636b6564556e74696c223a20000000000000000000006020820152611c0a8251809360206036850191016103ff565b01600b60fa1b603682015203601781018552018361027a565b60526102da919392936040519481611c458793518092602080870191016103ff565b82017f7b2274726169745f74797065223a20224368616e676573206c6f636b6564207560208201527f6e74696c222c202276616c7565223a20000000000000000000000000000000006040820152611ca78251809360206050850191016103ff565b01611f4b60f21b605082015203603281018552018361027a565b906102da603660405180947f22776f726e427942616e6e79426f64794964223a2000000000000000000000006020830152611d068151809260206035860191016103ff565b8101600b60fa1b603582015203601681018552018361027a565b604b6102da919392936040519481611d428793518092602080870191016103ff565b82017f7b2274726169745f74797065223a2022576f726e2062792042616e6e79222c206020820152680113b30b63ab2911d160bd1b6040820152611d908251809360206049850191016103ff565b01611f4b60f21b604982015203602b81018552018361027a565b906102da603660405180947f2275736564427942616e6e79426f64794964223a2000000000000000000000006020830152611d068151809260206035860191016103ff565b604b6102da919392936040519481611e118793518092602080870191016103ff565b82017f7b2274726169745f74797065223a2022557365642062792042616e6e79222c206020820152680113b30b63ab2911d160bd1b6040820152611d908251809360206049850191016103ff565b81601f8201121561048c578051611e758161124f565b92611e83604051948561027a565b8184526020828401011161048c5761045691602080850191016103ff565b9060208282031261048c57815167ffffffffffffffff811161048c576104569201611e5f565b6040513d5f823e3d90fd5b9081602091031261048c575190565b9081606091031261048c57805191604060208301519201516104568161056c565b612030600392959460a46102da956040519885611f298b975180926020808b0191016103ff565b86017f7b2274726169745f74797065223a202250726f64756374206e616d65222c202260208201527f76616c7565223a202200000000000000000000000000000000000000000000006040820152611f8b8251809360206049850191016103ff565b017f227d2c207b2274726169745f74797065223a202243617465676f7279206e616d60498201527f65222c202276616c7565223a20220000000000000000000000000000000000006069820152611fec8251809360206077850191016103ff565b017f227d2c207b2274726169745f74797065223a2022546f74616c20737570706c7960778201526c111610113b30b63ab2911d101160991b6097820152019061162e565b62227d5d60e81b815203601c1981018552018361027a565b906102da603d60405180947f646174613a6170706c69636174696f6e2f6a736f6e3b6261736536342c000000602083015261208c81518092602086860191016103ff565b810103601d81018552018361027a565b6120a68282613552565b9163ffffffff6120ba845163ffffffff1690565b1615612a03576120c86117ea565b506120d16117fc565b610100928385019462ffffff94856120ec885162ffffff1690565b16156128345750612116612110612107835163ffffffff1690565b63ffffffff1690565b83613d6e565b9182516127f8575b60018661212e895162ffffff1690565b16036127ca576121626121418683612a0e565b9461215c61215661215188613674565b611daa565b96613674565b90611def565b955b8351156126a857509060606001600160a01b0394939260046040518097819363043c358d60e11b8352165afa9384156126a3575f905f9561266e575b5081516121b29063ffffffff16613d17565b9688516121c19062ffffff1690565b62ffffff166121cf90613b28565b97606084019889516121e49063ffffffff1690565b63ffffffff166121f390613674565b916121fd93611f02565b94612208838861447a565b9783516122189063ffffffff1690565b63ffffffff1661222790613d17565b9980516122369062ffffff1690565b62ffffff1661224490613b28565b9861224e90613674565b91855161225e9063ffffffff1690565b63ffffffff1661226d90613674565b915161227d9062ffffff16613674565b905161228e9063ffffffff16613674565b9160408701516122a19063ffffffff1690565b63ffffffff166122b090613674565b9360208801516122cc906cffffffffffffffffffffffffff1690565b6cffffffffffffffffffffffffff166122e490613674565b956122ee90613674565b966122f890613674565b610120989098015161230c9060ff16613674565b9860405180916020820161231f9161162e565b03601f1981018252612331908261027a565b61233a9061464e565b9b6040519e8f9e8f602001612373906009907f7b226e616d65223a22000000000000000000000000000000000000000000000081520190565b61237c9161162e565b7f222c202270726f647563744e616d65223a20220000000000000000000000000081526013016123ab9161162e565b7f222c202263617465676f72794e616d65223a202200000000000000000000000081526014016123da9161162e565b7f222c2022746f6b656e4964223a200000000000000000000000000000000000008152600e016124099161162e565b7f2c2022757063223a20000000000000000000000000000000000000000000000081526009016124389161162e565b7f2c202263617465676f7279223a200000000000000000000000000000000000008152600e016124679161162e565b7f2c2022737570706c79223a2000000000000000000000000000000000000000008152600c016124969161162e565b7f2c202272656d61696e696e67223a2000000000000000000000000000000000008152600f016124c59161162e565b7f2c20227072696365223a200000000000000000000000000000000000000000008152600b016124f49161162e565b7f2c2022646563696d616c73223a200000000000000000000000000000000000008152600e016125239161162e565b7f2c202263757272656e6379223a200000000000000000000000000000000000008152600e016125529161162e565b7f2c2022646973636f756e74223a200000000000000000000000000000000000008152600e016125819161162e565b61016160f51b81526002016125959161162e565b61259e9161162e565b7f2c20226465736372697074696f6e223a2241207069656365206f662042616e6e81527f792052657461696c2e222c2265787465726e616c5f75726c223a22687474707360208201527f3a2f2f72657461696c2e62616e6e792e6574682e7375636b73222c22696d616760408201527f65223a22646174613a696d6167652f7376672b786d6c3b6261736536342c00006060820152607e0161263f9161162e565b61227d60f01b815260020103601f198101825261265c908261027a565b6126659061464e565b61045690612048565b905061269391945060603d60601161269c575b61268b818361027a565b810190611ee1565b5093905f6121a0565b503d612681565b611ec7565b9350945050506126be601092945162ffffff1690565b1611156127b657604051636c0360eb60e01b81525f816004816001600160a01b0386165afa9283156126a357612747936020925f91612794575b50925b612713612707826140eb565b6001600160a01b031690565b604051630c8df17160e41b81526001600160a01b039092166004830152602482019290925293849190829081906044820190565b03915afa9081156126a357610456925f92612763575b50614152565b61278691925060203d60201161278d575b61277e818361027a565b810190611ed2565b905f61275d565b503d612774565b6127b091503d805f833e6127a8818361027a565b810190611ea1565b5f6126f8565b6020612747926127c461029c565b926126fb565b6127f26127d78683613107565b946127ec6121566127e788613674565b611cc1565b90611d20565b95612164565b916128189060018761280d8a5162ffffff1690565b160361281e57613fd8565b9161211e565b61282f9061282a613e99565b6118c6565b613fd8565b91909293966128438883612e1d565b9661284e8984611518565b979099612859611835565b9a5f9b5b8a518d10156128b2576128839061287d6128778f8e6114f6565b51613674565b906118c6565b9b61288e8b516118fb565b811061289e575b6001019b61285d565b9b6128aa600191611909565b9c9050612895565b6128c7919395979a989b929496999c50611941565b995f9b5b88518d101561293c576129346001918c8f6129296121078f8f61291161290561291e936128fe61292e98612919956114f6565b5190613552565b9687015162ffffff1690565b62ffffff1690565b613b28565b935163ffffffff1690565b613d17565b9161197a565b9c019b6128cb565b939894995094999196509499508515155f146129f2579061298661292961210761297c61297561298c9661296f8c613674565b90611a96565b9987613552565b5163ffffffff1690565b90611b0d565b955b6129ba866129ad846001600160a01b03165f52600260205260405f2090565b905f5260205260405f2090565b544281116129c9575b50612164565b94966129e56121566129eb93996129df89613674565b90611bac565b90611c23565b955f6129c3565b94506129fd90611a1c565b9561298e565b5050506104566117ea565b6001600160a01b0316805f52600e60205260405f20825f5260205260405f2054918215918215612a47575b5050612a425790565b505f90565b9091505f52600b60205260405f20825f5260205260405f205414155f80612a39565b916060816001600160a01b039260209497969760408752816040880152838701375f828287010152601f80199101168401019416910152565b6009545f9291612ab1826101b8565b91600190818116908115612b1b5750600114612acc57505050565b909192935060095f527f6e1540171b6c0c960b71a7020d9f60077f6af931a8bbf590da0223dacf75c7af905f915b848310612b08575050500190565b8181602092548587015201920191612afa565b60ff191683525050811515909102019150565b906040519182602091612b49815180928580860191016103ff565b6008545f918301612b59826101b8565b91600190818116908115612be25750600114612b86575b5050506102da925003601f19810184528361027a565b94925060085f527ff3f7a9fe364faab93b216da50a3214154f22a0a2b415b23a84c8169e8b636ee3945f905b838210612bca5750506102da945001015f8080612b70565b86548284018601529586019588955090840190612bb2565b9150506102da95935060ff9291921916838301528015150201015f8080612b70565b906040519182602091612c1f815180928580860191016103ff565b6005545f918301612c2f826101b8565b91600190818116908115612be25750600114612c5b575050506102da925003601f19810184528361027a565b94925060055f527f036b6384b5eca791c62761152d0c79bb0604c104a5fb6f4eb0703f3154bb3db0945f905b838210612c9f5750506102da945001015f8080612b70565b86548284018601529586019588955090840190612c87565b906040519182602091612cd2815180928580860191016103ff565b6007545f918301612ce2826101b8565b91600190818116908115612be25750600114612d0e575050506102da925003601f19810184528361027a565b94925060075f527fa66cc928b5edb82af9bd49922954155ab7b0942694bea4ce44661d9a8736c688945f905b838210612d525750506102da945001015f8080612b70565b86548284018601529586019588955090840190612d3a565b906040519182602091612d85815180928580860191016103ff565b6006545f918301612d95826101b8565b91600190818116908115612be25750600114612dc1575050506102da925003601f19810184528361027a565b94925060065f527ff652222313e28459528d920b65115c16c04f3efc82aaedc97be59f3f377c0d3f945f905b838210612e055750506102da945001015f8080612b70565b86548284018601529586019588955090840190612ded565b612e278282613552565b9163ffffffff80612e3c855163ffffffff1690565b1615612f435760609162ffffff612e5a61010087015162ffffff1690565b16612f0e57936001612eb99392612ea461291e612e7a6104569989611518565b969080151580612f07575b612ede575b5061287d612e9f612107885163ffffffff1690565b614775565b1603612ed557612eb390612c04565b9261494d565b8051612ec6575b50613fd8565b612ecf916118c6565b5f612ec0565b612eb390612b2e565b612f019150612ef661210761297c612efc938d613552565b8a613d6e565b61186e565b5f612e8a565b5085612e85565b505050612f25612107612f2b935163ffffffff1690565b90613d6e565b8051612f3a57506104566117ea565b61045690613fd8565b505050506104566117ea565b9092612f5b8483613552565b9363ffffffff9081612f71875163ffffffff1690565b16156130625760609062ffffff612f8f61010089015162ffffff1690565b166130485791612fd161291e600193612fac6104569a9689611518565b978115159081613040575b50613022575061287d612e9f612107885163ffffffff1690565b160361301357612fe090612c04565b925b612fee575b5050613fd8565b612ff79161494d565b8051613004575b80612fe7565b61300d916118c6565b5f612ffe565b61301c90612b2e565b92612fe2565b612f01915061303a61210761297c612efc938c613552565b89613d6e565b90505f612fb7565b505050509050612f25612107612f2b935163ffffffff1690565b5050505050506104566117ea565b91613079614736565b5f925b80518410156131015761308f84826114f6565b519361309b81856114f6565b51855f5260049560208781526040805f20546130f257907fb10eb6fc7557a7109693cb8f3fac48d44328de56c0368ee4cac539b424d2cad991600196979899845f52825284815f205551338152a30192919061307c565b51632165e0ab60e01b81528890fd5b50915050565b6001600160a01b0381165f52600f60205260405f20825f5260205260405f205490811561318f57613149906001600160a01b03165f52600a60205260405f2090565b815f5260205261315b60405f20611450565b915f5b8351811015613187578161317282866114f6565b51146131805760010161315e565b5050905090565b505050505f90565b5050505f90565b9161319f614736565b5f925b8051841015613101576131b584826114f6565b51936131c181856114f6565b5194805f52602095600c87526040805f20825167ffffffffffffffff8111610221576131f18161171584546101b8565b89601f821160011461326f5750917f9dedd219289ed514faff576c477c66bd097aef59a236e3b8ebcf0d0070cb4e969391613249846132589560019a9b9c9d5f9161326457508160011b915f199060031b1c19161790565b90555b519182913390836117c3565b0390a2019291906131a2565b90508501515f610d65565b99601f198216613282845f5260205f2090565b9b5f905b8282106132eb57505091600198999a9b7f9dedd219289ed514faff576c477c66bd097aef59a236e3b8ebcf0d0070cb4e96969492826132589795106132d3575b5050881b8801905561324c565b8501515f1960f88460031b161c191690555f806132c6565b80600181939f868b015181550194019d01909c929c613286565b51906102da8261056c565b9081602091031261048c57516104568161056c565b6040516331a9108f60e11b815260048101929092526001600160a01b03906020908390602490829085165afa9182156126a3575f92613385575b5080613369615870565b1691160361337357565b6040516341eb334360e11b8152600490fd5b6133a891925060203d6020116133af575b6133a0818361027a565b810190613310565b905f61335f565b503d613396565b519063ffffffff8216820361048c57565b51906cffffffffffffffffffffffffff8216820361048c57565b519061ffff8216820361048c57565b519062ffffff8216820361048c57565b519060ff8216820361048c57565b51906102da82610ef6565b60208183031261048c57805167ffffffffffffffff9182821161048c57016101e08184031261048c5761344a610880565b92613454826133b6565b8452613462602083016133c7565b6020850152613473604083016133b6565b6040850152613484606083016133b6565b6060850152613495608083016133c7565b60808501526134a660a083016133e1565b60a08501526134b760c08301613305565b60c085015260e082015160e08501526101006134d48184016133f0565b908501526101206134e6818401613400565b908501526101406134f881840161340e565b9085015261016061350a81840161340e565b9085015261018061351c81840161340e565b908501526101a061352e81840161340e565b908501526101c0928383015190811161048c5761354b9201611e5f565b9082015290565b613605915f9160606101c060405161356981610204565b85815285602082015285604082015285838201528560808201528560a08201528560c08201528560e08201528561010082015285610120820152856101408201528561016082015285610180820152856101a082015201526135cd612707826140eb565b9060405180958194829363c44a8e6d60e01b8452600484016040905f9294936001600160a01b03606083019616825260208201520152565b03915afa9081156126a3575f9161361a575090565b61045691503d805f833e61362e818361027a565b810190613419565b60405161364281610226565b5f8152905f368137565b906136568261124f565b613663604051918261027a565b82815280926114c6601f199161124f565b805f917a184f03e93ff9f4daa797ed6e38ed64bf6a1f010000000000000000808210156137b5575b506d04ee2d6d415b85acef8100000000808310156137a6575b50662386f26fc1000080831015613797575b506305f5e10080831015613788575b5061271080831015613779575b506064821015613769575b600a8092101561375f575b60019081602161370b6001870161364c565b95860101905b61371d575b5050505090565b5f19019083907f30313233343536373839616263646566000000000000000000000000000000008282061a83530491821561375a57919082613711565b613716565b91600101916136f9565b91906064600291049101916136ee565b6004919392049101915f6136e3565b6008919392049101915f6136d6565b6010919392049101915f6136c7565b6020919392049101915f6136b5565b60409350810491505f61369c565b604051906137d082610242565b600c82527f5370656369616c20426f647900000000000000000000000000000000000000006020830152565b6040519061380982610242565b600c82527f5370656369616c204865616400000000000000000000000000000000000000006020830152565b6040519061384282610242565b600c82527f5370656369616c204c65677300000000000000000000000000000000000000006020830152565b6040519061387b82610242565b600c82527f5370656369616c205375697400000000000000000000000000000000000000006020830152565b604051906138b482610242565b6004825263119a5cdd60e21b6020830152565b604051906138d482610242565b600b82527f5375697420626f74746f6d0000000000000000000000000000000000000000006020830152565b6040519061390d82610242565b600882527f5375697420746f700000000000000000000000000000000000000000000000006020830152565b6040519061394682610242565b600482526314dd5a5d60e21b6020830152565b6040519061396682610242565b60048252631219585960e21b6020830152565b6040519061398682610242565b600882527f4865616420746f700000000000000000000000000000000000000000000000006020830152565b604051906139bf82610242565b600582527f4d6f7574680000000000000000000000000000000000000000000000000000006020830152565b604051906139f882610242565b600782527f476c6173736573000000000000000000000000000000000000000000000000006020830152565b60405190613a3182610242565b600882527f4e65636b6c6163650000000000000000000000000000000000000000000000006020830152565b60405190613a6a82610242565b60048252634c65677360e01b6020830152565b60405190613a8a82610242565b600882527f4261636b736964650000000000000000000000000000000000000000000000006020830152565b60405190613ac382610242565b600a82527f4261636b67726f756e64000000000000000000000000000000000000000000006020830152565b60405190613afc82610242565b600a82527f42616e6e7920626f6479000000000000000000000000000000000000000000006020830152565b80613b365750610456613aef565b60018103613b475750610456613ab6565b60028103613b585750610456613a7d565b60078103613b695750610456613a5d565b60038103613b7a5750610456613a24565b60058103613b8b57506104566139eb565b60068103613b9c57506104566139b2565b600b8103613bad5750610456613979565b60048103613bbe5750610456613959565b60088103613bcf5750610456613939565b600a8103613be05750610456613900565b60098103613bf157506104566138c7565b600c8103613c0257506104566138a7565b600d8103613c13575061045661386e565b600e8103613c245750610456613835565b600f8103613c3557506104566137fc565b601014613c44576104566117ea565b6104566137c3565b60405190613c5982610242565b600882527f4f726967696e616c0000000000000000000000000000000000000000000000006020830152565b60405190613c9282610242565b600682527f4f72616e676500000000000000000000000000000000000000000000000000006020830152565b60405190613ccb82610242565b600482526350696e6b60e01b6020830152565b60405190613ceb82610242565b600582527f416c69656e0000000000000000000000000000000000000000000000000000006020830152565b60018103613d285750610456613cde565b60028103613d395750610456613cbe565b60038103613d4a5750610456613c85565b60048103613d5b5750610456613c4c565b5f52600c60205261045660405f2061035f565b90805f52602091600d8352613d8560405f2061035f565b8051613e925750613dd791816001600160a01b03613da386946140eb565b1690604051809581948293632f54648f60e21b845260048401602090939291936001600160a01b0360408201951681520152565b03915afa80156126a357613e3f92613e04604992610456945f91613e75575b50613dff61029c565b614152565b60405194827f3c696d61676520687265663d220000000000000000000000000000000000000087948501528251928391602d860191016103ff565b81017f222077696474683d2234303022206865696768743d22343030222f3e00000000602d82015203602981018452018261027a565b613e8c9150833d851161278d5761277e818361027a565b5f613df6565b9250505090565b603b610456613f28610a056008613faf6040516003613f9f81613f8f81613f7f6044602088017f7b66696c6c3a6e6f6e653b7d00000000000000000000000000000000000000008152600c8952613eef89610242565b6040519e8f9d8e7f3c7374796c653e2e6f7b66696c6c3a233830383038303b7d2e6231000000000060208201528b5192839101846103ff565b8d016217311960e91b603b820152895190613f4782603e8301856103ff565b01622e623360e81b603e820152613f658a51809360418401906103ff565b01613f7860418201620b988d60ea1b9052565b018761162e565b622e613160e81b8152018561162e565b6217309960e91b8152018361162e565b622e613360e81b8152019061162e565b7f3c2f7374796c653e000000000000000000000000000000000000000000000000815201612aa2565b906102da60bb60405180947f3c7376672077696474683d2234303022206865696768743d223430302220766960208301527f6577426f783d223020302034303020343030222066696c6c3d2277686974652260408301527f20786d6c6e733d22687474703a2f2f7777772e77332e6f72672f323030302f7360608301527f7667223e3c7374796c653e2e6f7b66696c6c3a233035303530353b7d2e777b6660808301527f696c6c3a236639663966393b7d3c2f7374796c653e000000000000000000000060a08301526140b581518092602060b5860191016103ff565b81017f3c2f7376673e000000000000000000000000000000000000000000000000000060b582015203609b81018552018361027a565b60206001600160a01b039160046040518094819363507f146560e01b8352165afa9081156126a3575f9161411d575090565b90506020813d60201161414a575b816141386020938361027a565b8101031261048c57516104568161056c565b3d915061412b565b9061045690614180604051602092609160f51b8483015260228201526022815261417b8161025e565b61523f565b92604051938161419986935180928680870191016103ff565b82016141ad825180938680850191016103ff565b0103808452018261027a565b906102da6021604051846141d78296518092602080860191016103ff565b8101600160fd1b602082015203600181018552018361027a565b604051906141fe82610242565b600a82527f2072656d61696e696e67000000000000000000000000000000000000000000006020830152565b906102da9294936021926142936040519788946020936142528151809287808b0191016103ff565b8601614266825180938780850191016103ff565b01602f60f81b8482015261428282518093868a850191016103ff565b0191835193849187850191016103ff565b0103600181018552018361027a565b906102da929493602d926143216040519788946020936142ca8151809287808b0191016103ff565b86017f2028534f4c44204f555429200000000000000000000000000000000000000000858201526143048251809387602c850191016103ff565b01602f60f81b602c82015261428282518093868a850191016103ff565b0103600d81018552018361027a565b6102da9161429394936021926040519687936020926143578151809286808a0191016103ff565b850161436b825180938680850191016103ff565b0191602f60f81b81840152835193849187850191016103ff565b906102da6022604051846143a38296518092602080860191016103ff565b81016101d160f51b602082015203600281018552018361027a565b60216102da9193929360405194816143e08793518092602080870191016103ff565b82016143f582518093602080850191016103ff565b01600160fd1b602082015203600181018552018361027a565b60256102da9193929360405194816144308793518092602080870191016103ff565b82017f5550432023000000000000000000000000000000000000000000000000000000602082015261446b82518093602087850191016103ff565b0103600581018552018361027a565b906144e861045692633b9aca006144a361449e612929612107875163ffffffff1690565b6141b9565b91066144ad6141f1565b811561453f5750906144c16144e392613674565b6144dd6144d8612107606088015163ffffffff1690565b613674565b91614330565b614385565b9061450061291961291161010084015162ffffff1690565b8051614522575b506144d861210761451c925163ffffffff1690565b9061440e565b6121076145366144d89261451c94956143be565b93925050614507565b9050604084019163ffffffff614559845163ffffffff1690565b168061459457506145776144d86121076144e3955163ffffffff1690565b61458e6144d8612107606089015163ffffffff1690565b916142a2565b6144e393506145a290613674565b6145b96144d8612107606089015163ffffffff1690565b9161422a565b604051906145cc8261025e565b604082527f6768696a6b6c6d6e6f707172737475767778797a303132333435363738392b2f6040837f4142434445464748494a4b4c4d4e4f505152535455565758595a61626364656660208201520152565b908160021b917f3fffffffffffffffffffffffffffffffffffffffffffffffffffffffffffffff8116036106ba57565b80511561472d5761465d6145bf565b61467961467461466d8451611419565b6003900490565b61461e565b9161468b61468684611427565b61364c565b92835280815182019060208501935b8282106146db575050506003905106806001146146ca576002146146bc575090565b603d60f81b5f199091015290565b50613d3d60f01b6001199091015290565b9091936004906003809401938451600190603f9082828260121c16880101518553828282600c1c16880101518386015382828260061c168801015160028601531685010151908201530193919061469a565b506104566117ea565b6001600160a01b03805f54168161474b615870565b16036147545750565b60249061475f615870565b60405163118cdaa760e01b815291166004820152fd5b61477e90615744565b93604096959693919351968796602088017f3c7374796c653e2e62317b66696c6c3a2300000000000000000000000000000090528051908160318a0191602001916147c8926103ff565b8701603181017f3b7d2e62327b66696c6c3a230000000000000000000000000000000000000000905281519182603d83019160200191614807926103ff565b01603d81017f3b7d2e62337b66696c6c3a230000000000000000000000000000000000000000905281519182604983019160200191614845926103ff565b0160498101614873907f3b7d2e62347b66696c6c3a2300000000000000000000000000000000000000009052565b60550161487f9161162e565b7f3b7d2e61317b66696c6c3a2300000000000000000000000000000000000000008152600c016148ae9161162e565b7f3b7d2e61327b66696c6c3a2300000000000000000000000000000000000000008152600c016148dd9161162e565b7f3b7d2e61337b66696c6c3a2300000000000000000000000000000000000000008152600c0161490c9161162e565b7f3b7d3c2f7374796c653e000000000000000000000000000000000000000000008152600a0161493b90612aa2565b03601f1981018252610456908261027a565b919060608151935f925f9383915f5b61496589611435565b811015614abe5788811015614ab25761497e81836114f6565b519361498a8587613552565b936149b06121076149a561291161010089015162ffffff1690565b965163ffffffff1690565b915b600386811492908315614a83575050506001956149cf8389613d6e565b995b6006878103614a4f575050600a6001965b1180614a45575b614a2b575b15159081614a22575b50614a0a575b506001019592919561495c565b6001919661287d614a1b9288613d6e565b95906149fd565b9050155f6149f7565b98614a3691986118c6565b96614a3f6117ea565b986149ee565b50895115156149e9565b8791971180614a7b575b614a66575b600a906149e2565b955097614a7290612d6a565b97600195614a5e565b508615614a59565b879b9198929b1180614aaa575b156149d157965097614aa190612cb7565b976001966149d1565b508715614a90565b5f9360119385916149b2565b5050505050925050565b9190614ae9816129ad856001600160a01b03165f52600b60205260405f2090565b54614af48185612a0e565b818414801590614cf6575b614b0b575b5050505050565b8214614cdd575b508115614cb6576040516331a9108f60e11b808252600482018490526001600160a01b0392918584169060208082602481865afa80156126a35786925f91614c99575b5082614b5f615870565b911696168614159384614c21575b50505050614c0f5763ffffffff614b8761297c8587613552565b1615614bfd5782614bad826129ad876001600160a01b03165f52600b60205260405f2090565b55614bcd836129ad866001600160a01b03165f52600e60205260405f2090565b553003614be2575b50505b5f80808080614b04565b614bf6913090614bf0615870565b906158c9565b5f80614bd5565b60405163c3095f8760e01b8152600490fd5b60405163d03702f960e01b8152600490fd5b819293945090614c5891614c33615870565b95614c3e8a8c612a0e565b916040518095819482938352600483019190602083019252565b03915afa9081156126a35783925f92614c7c575b505016911614155f808080614b6d565b614c929250803d106133af576133a0818361027a565b5f80614c6c565b614cb09150823d84116133af576133a0818361027a565b5f614b55565b614cd791506129ad5f936001600160a01b03165f52600b60205260405f2090565b55614bd8565b614cf090614ce9615870565b30866158c9565b5f614b12565b5082811415614aff565b81519167ffffffffffffffff831161022157680100000000000000008311610221578154838355808410614d5f575b506020809101915f5260205f20905f5b848110614d4d575050505050565b83518382015592810192600101614d3f565b614d7590835f528460205f209182019101611645565b5f614d2f565b909291925f935f915f92614dac614da7836129ad886001600160a01b03165f52600a60205260405f2090565b611450565b955f945f945f9089516151d9575b90969299935f999899969296975b825189101561514e579a8a9b614de18a859d9c9d6114f6565b516040516331a9108f60e11b8152600481018290529d9097906001600160a01b03168e6024815a93602094fa9d8e156126a3575f9e61512d575b508d6001600160a01b0380614e2e615870565b921691161415806150a2575b61509057614e5c612911610100614e528f8c90613552565b015162ffffff1690565b9960028b108015615086575b615074578b15159081615069575b506150575760048a03614fba57506001949095919293955b8981111580614fb1575b15614f2c57508a949392918188614ebc93141580614f1a575b614f01575b5061150a565b94858c805182105f14614ef457610100614e52614edf614ee794612911946114f6565b518099613552565b905b959192939490614e8e565b505093505f935f90614ee9565b614f1490614f0d615870565b30896158c9565b5f614eb6565b5089614f268289613107565b14614eb1565b93966001929a959d999199969396898d81614f478583613107565b03614f64575b50505050930197939a949091999899969296614dc8565b836129ad614f83926001600160a01b03165f52600f60205260405f2090565b556001600160a01b0330911603614f9d575b80898d614f4d565b614fab90308d614bf0615870565b5f614f95565b50801515614e98565b939260088a03614fd35750600192959192939490614e8e565b9260058a14801561504d575b8015615043575b8061503c575b1561500357604051639b8fdcd160e01b8152600490fd5b600a8a148015615032575b8061502b575b15614ee9576040516306f7588760e01b8152600490fd5b5083615014565b5060098a1461500e565b5084614fec565b50600b8a14614fe6565b5060068a14614fdf565b604051633869abd960e21b8152600490fd5b90508a11155f614e76565b60405163b0ee46ab60e01b8152600490fd5b5060108b11614e68565b60405163032cac0360e01b8152600490fd5b508b6001600160a01b0360206150e56150b9615870565b936150c48d82613107565b6040519485809481936331a9108f60e11b8352600483019190602083019252565b0392165afa9081156126a3576001600160a01b039182915f9161510e575b501691161415614e3a565b615127915060203d6020116133af576133a0818361027a565b5f615103565b615147919e5060203d6020116133af576133a0818361027a565b9c5f614e1b565b5050979550915091949250805b61518a575050506102da92916129ad615185926001600160a01b03165f52600a60205260405f2090565b614d00565b90818561519a6151a59487613107565b146151c6575061150a565b81518110156151bf576151b881836114f6565b518061515b565b5f8061515b565b614f14906151d2615870565b30876158c9565b9550506151e5886114e4565b51946151fa612911610100614e52898c613552565b90614dba565b604051906105e0820182811067ffffffffffffffff82111761022157604052602e82526105c0366020840137565b9081518110156114f1570160200190565b908151156153715761524f615200565b915f61525a846114e4565b5260019080515f915b8183106152885750505061527e61528391610456939461592d565b61596f565b6159b4565b9091936152d06152ca6152c461529e888661522e565b517fff000000000000000000000000000000000000000000000000000000000000001690565b60f81c90565b60ff1690565b905f915b60ff908882881685101561533457600192916153096153036152ca6152fc8961530f966114f6565b5160ff1690565b60081b90565b90611443565b61532b603a9283830616615323878d6114f6565b9060ff169052565b049201916152d4565b509196925050805b61534b57506001019190615263565b9360ff6001603a9261536783858a06166153238584168d6114f6565b011694048061533c565b9050610456613636565b6040519061538882610242565b600682527f66666539303000000000000000000000000000000000000000000000000000006020830152565b604051906153c182610242565b600682527f66666337303000000000000000000000000000000000000000000000000000006020830152565b604051906153fa82610242565b600682527f66336136303300000000000000000000000000000000000000000000000000006020830152565b6040519061543382610242565b600682527f39363561316100000000000000000000000000000000000000000000000000006020830152565b6040519061546c82610242565b600682527f66663763303200000000000000000000000000000000000000000000000000006020830152565b604051906154a582610242565b600682527f66643336303000000000000000000000000000000000000000000000000000006020830152565b604051906154de82610242565b600682527f63333265306400000000000000000000000000000000000000000000000000006020830152565b6040519061551782610242565b600682527f66666438633500000000000000000000000000000000000000000000000000006020830152565b6040519061555082610242565b600682527f66663936613900000000000000000000000000000000000000000000000000006020830152565b6040519061558982610242565b600682527f66653538386200000000000000000000000000000000000000000000000000006020830152565b604051906155c282610242565b600682527f63393266343500000000000000000000000000000000000000000000000000006020830152565b604051906155fb82610242565b600682527f36376437353700000000000000000000000000000000000000000000000000006020830152565b6040519061563482610242565b600682527f33306132323000000000000000000000000000000000000000000000000000006020830152565b6040519061566d82610242565b600682527f32313761313500000000000000000000000000000000000000000000000000006020830152565b604051906156a682610242565b600682527f30393439306600000000000000000000000000000000000000000000000000006020830152565b604051906156df82610242565b600682527f65343833656600000000000000000000000000000000000000000000000000006020830152565b6040519061571882610242565b600682527f64633266656600000000000000000000000000000000000000000000000000006020830152565b6001810361578b57506157556155ee565b9061575e615627565b90615767615660565b90615770615699565b906157796156d2565b9061578261570b565b9061045661570b565b600281036157d2575061579c61550a565b906157a5615543565b906157ae61557c565b906157b76155b5565b906157c061550a565b906157c9615543565b9061045661557c565b6003810361581957506157e36153ed565b906157ec61545f565b906157f5615498565b906157fe6154d1565b906158076153ed565b9061581061545f565b90610456615498565b60041461583257604051639a7b332360e01b8152600490fd5b61583a61537b565b906158436153b4565b9061584c6153ed565b90615855615426565b9061585e61537b565b906158676153b4565b906104566153ed565b6001600160a01b037f0000000000000000000000008a5ba591ed2bed5691a378c65611ed492500f887163314806158be575b156158ba5760131936013681116106ba573560601c90565b3390565b5060143610156158a2565b909291926001600160a01b0380921690813b1561048c575f6064928195856040519889978896632142170760e11b885216600487015216602485015260448401525af180156126a3576159195750565b67ffffffffffffffff811161022157604052565b9060ff8091169061593d8261149e565b925f5b83811061594e575050505090565b808361595c600193856114f6565b511661596882886114f6565b5201615940565b90815161597b8161149e565b905f5b81811061598c575090925050565b60019060ff6159a15f198389510301886114f6565b51166159ad82866114f6565b520161597e565b80516159bf8161124f565b9160406159cf604051948561027a565b8284526159db8361124f565b60209190601f190136868401375f5b8481106159f957505050505090565b6001908251615a078161025e565b603a81527f31323334353637383941424344454647484a4b4c4d4e50515253545556575859858201527f5a6162636465666768696a6b6d6e6f707172737475767778797a000000000000848201527fff0000000000000000000000000000000000000000000000000000000000000090615a8f9060ff615a87858a6114f6565b51169061522e565b51165f1a615a9d828961522e565b53016159ea56fea2646970667358221220ebd28430e1a83bf222a3c7ad1dfec809882c3a096f3e618468d16f9f72a62f7664736f6c63430008170033",
	"gitCommit": "b075cf44533101e1c1eeb87e8fa3248f6a28f933"
}